{
	"contracts/SmartContract.sol": {
		"SmartContractWallet": {
			"abi": [
				{
					"inputs": [],
					"stateMutability": "nonpayable",
					"type": "constructor"
				},
				{
					"inputs": [
						{
							"internalType": "address",
							"name": "",
							"type": "address"
						}
					],
					"name": "allowance",
					"outputs": [
						{
							"internalType": "uint256",
							"name": "",
							"type": "uint256"
						}
					],
					"stateMutability": "view",
					"type": "function"
				},
				{
					"inputs": [],
					"name": "confirmationsFromGuardiansForReset",
					"outputs": [
						{
							"internalType": "uint256",
							"name": "",
							"type": "uint256"
						}
					],
					"stateMutability": "view",
					"type": "function"
				},
				{
					"inputs": [
						{
							"internalType": "address",
							"name": "",
							"type": "address"
						}
					],
					"name": "guardians",
					"outputs": [
						{
							"internalType": "bool",
							"name": "",
							"type": "bool"
						}
					],
					"stateMutability": "view",
					"type": "function"
				},
				{
					"inputs": [
						{
							"internalType": "address",
							"name": "",
							"type": "address"
						}
					],
					"name": "isAllowedToSend",
					"outputs": [
						{
							"internalType": "bool",
							"name": "",
							"type": "bool"
						}
					],
					"stateMutability": "view",
					"type": "function"
				},
				{
					"inputs": [],
					"name": "owner",
					"outputs": [
						{
							"internalType": "address payable",
							"name": "",
							"type": "address"
						}
					],
					"stateMutability": "view",
					"type": "function"
				},
				{
					"inputs": [
						{
							"internalType": "address payable",
							"name": "_newOwner",
							"type": "address"
						}
					],
					"name": "proposeNewOwner",
					"outputs": [],
					"stateMutability": "nonpayable",
					"type": "function"
				},
				{
					"inputs": [
						{
							"internalType": "address",
							"name": "_for",
							"type": "address"
						},
						{
							"internalType": "uint256",
							"name": "_amount",
							"type": "uint256"
						}
					],
					"name": "setAllowance",
					"outputs": [],
					"stateMutability": "nonpayable",
					"type": "function"
				},
				{
					"inputs": [
						{
							"internalType": "address",
							"name": "_isGuardian",
							"type": "address"
						}
					],
					"name": "setGuardians",
					"outputs": [],
					"stateMutability": "nonpayable",
					"type": "function"
				},
				{
					"inputs": [
						{
							"internalType": "address payable",
							"name": "_to",
							"type": "address"
						},
						{
							"internalType": "uint256",
							"name": "_amount",
							"type": "uint256"
						},
						{
							"internalType": "bytes",
							"name": "_payload",
							"type": "bytes"
						}
					],
					"name": "transfer",
					"outputs": [
						{
							"internalType": "bytes",
							"name": "",
							"type": "bytes"
						}
					],
					"stateMutability": "nonpayable",
					"type": "function"
				},
				{
					"stateMutability": "payable",
					"type": "receive"
				}
			],
			"devdoc": {
				"kind": "dev",
				"methods": {},
				"version": 1
			},
			"evm": {
				"assembly": "    /* \"contracts/SmartContract.sol\":228:2512  contract SmartContractWallet {... */\n  mstore(0x40, 0x80)\n    /* \"contracts/SmartContract.sol\":663:724  constructor(){... */\n  callvalue\n  dup1\n  iszero\n  tag_1\n  jumpi\n  revert(0x00, 0x00)\ntag_1:\n  pop\n    /* \"contracts/SmartContract.sol\":704:714  msg.sender */\n  caller\n    /* \"contracts/SmartContract.sol\":687:692  owner */\n  0x00\n  0x00\n    /* \"contracts/SmartContract.sol\":687:715  owner = payable (msg.sender) */\n  0x0100\n  exp\n  dup2\n  sload\n  dup2\n  0xffffffffffffffffffffffffffffffffffffffff\n  mul\n  not\n  and\n  swap1\n  dup4\n  0xffffffffffffffffffffffffffffffffffffffff\n  and\n  mul\n  or\n  swap1\n  sstore\n  pop\n    /* \"contracts/SmartContract.sol\":228:2512  contract SmartContractWallet {... */\n  dataSize(sub_0)\n  dup1\n  dataOffset(sub_0)\n  0x00\n  codecopy\n  0x00\n  return\nstop\n\nsub_0: assembly {\n        /* \"contracts/SmartContract.sol\":228:2512  contract SmartContractWallet {... */\n      mstore(0x40, 0x80)\n      jumpi(tag_1, lt(calldatasize, 0x04))\n      shr(0xe0, calldataload(0x00))\n      dup1\n      0x83012be1\n      gt\n      tag_12\n      jumpi\n      dup1\n      0x83012be1\n      eq\n      tag_7\n      jumpi\n      dup1\n      0x8da5cb5b\n      eq\n      tag_8\n      jumpi\n      dup1\n      0xb1f8100d\n      eq\n      tag_9\n      jumpi\n      dup1\n      0xbe45fd62\n      eq\n      tag_10\n      jumpi\n      dup1\n      0xdac1b303\n      eq\n      tag_11\n      jumpi\n      jump(tag_2)\n    tag_12:\n      dup1\n      0x0633b14a\n      eq\n      tag_3\n      jumpi\n      dup1\n      0x0bc605ad\n      eq\n      tag_4\n      jumpi\n      dup1\n      0x310ec4a7\n      eq\n      tag_5\n      jumpi\n      dup1\n      0x3e5beab9\n      eq\n      tag_6\n      jumpi\n      jump(tag_2)\n    tag_1:\n      jumpi(tag_2, calldatasize)\n      stop\n    tag_2:\n      revert(0x00, 0x00)\n        /* \"contracts/SmartContract.sol\":407:448  mapping(address => bool) public guardians */\n    tag_3:\n      callvalue\n      dup1\n      iszero\n      tag_15\n      jumpi\n      revert(0x00, 0x00)\n    tag_15:\n      pop\n      tag_16\n      0x04\n      dup1\n      calldatasize\n      sub\n      dup2\n      add\n      swap1\n      tag_17\n      swap2\n      swap1\n      tag_18\n      jump\t// in\n    tag_17:\n      tag_19\n      jump\t// in\n    tag_16:\n      mload(0x40)\n      tag_20\n      swap2\n      swap1\n      tag_21\n      jump\t// in\n    tag_20:\n      mload(0x40)\n      dup1\n      swap2\n      sub\n      swap1\n      return\n        /* \"contracts/SmartContract.sol\":351:398  mapping(address => bool) public isAllowedToSend */\n    tag_4:\n      callvalue\n      dup1\n      iszero\n      tag_22\n      jumpi\n      revert(0x00, 0x00)\n    tag_22:\n      pop\n      tag_23\n      0x04\n      dup1\n      calldatasize\n      sub\n      dup2\n      add\n      swap1\n      tag_24\n      swap2\n      swap1\n      tag_18\n      jump\t// in\n    tag_24:\n      tag_25\n      jump\t// in\n    tag_23:\n      mload(0x40)\n      tag_26\n      swap2\n      swap1\n      tag_21\n      jump\t// in\n    tag_26:\n      mload(0x40)\n      dup1\n      swap2\n      sub\n      swap1\n      return\n        /* \"contracts/SmartContract.sol\":1503:1828  function setAllowance(address _for, uint _amount) public {... */\n    tag_5:\n      callvalue\n      dup1\n      iszero\n      tag_27\n      jumpi\n      revert(0x00, 0x00)\n    tag_27:\n      pop\n      tag_28\n      0x04\n      dup1\n      calldatasize\n      sub\n      dup2\n      add\n      swap1\n      tag_29\n      swap2\n      swap1\n      tag_30\n      jump\t// in\n    tag_29:\n      tag_31\n      jump\t// in\n    tag_28:\n      stop\n        /* \"contracts/SmartContract.sol\":303:344  mapping(address => uint) public allowance */\n    tag_6:\n      callvalue\n      dup1\n      iszero\n      tag_32\n      jumpi\n      revert(0x00, 0x00)\n    tag_32:\n      pop\n      tag_33\n      0x04\n      dup1\n      calldatasize\n      sub\n      dup2\n      add\n      swap1\n      tag_34\n      swap2\n      swap1\n      tag_18\n      jump\t// in\n    tag_34:\n      tag_35\n      jump\t// in\n    tag_33:\n      mload(0x40)\n      tag_36\n      swap2\n      swap1\n      tag_37\n      jump\t// in\n    tag_36:\n      mload(0x40)\n      dup1\n      swap2\n      sub\n      swap1\n      return\n        /* \"contracts/SmartContract.sol\":597:654  uint public constant confirmationsFromGuardiansForReset=3 */\n    tag_7:\n      callvalue\n      dup1\n      iszero\n      tag_38\n      jumpi\n      revert(0x00, 0x00)\n    tag_38:\n      pop\n      tag_39\n      tag_40\n      jump\t// in\n    tag_39:\n      mload(0x40)\n      tag_41\n      swap2\n      swap1\n      tag_37\n      jump\t// in\n    tag_41:\n      mload(0x40)\n      dup1\n      swap2\n      sub\n      swap1\n      return\n        /* \"contracts/SmartContract.sol\":266:294  address payable public owner */\n    tag_8:\n      callvalue\n      dup1\n      iszero\n      tag_42\n      jumpi\n      revert(0x00, 0x00)\n    tag_42:\n      pop\n      tag_43\n      tag_44\n      jump\t// in\n    tag_43:\n      mload(0x40)\n      tag_45\n      swap2\n      swap1\n      tag_46\n      jump\t// in\n    tag_45:\n      mload(0x40)\n      dup1\n      swap2\n      sub\n      swap1\n      return\n        /* \"contracts/SmartContract.sol\":912:1495  function proposeNewOwner(address payable  _newOwner) public{... */\n    tag_9:\n      callvalue\n      dup1\n      iszero\n      tag_47\n      jumpi\n      revert(0x00, 0x00)\n    tag_47:\n      pop\n      tag_48\n      0x04\n      dup1\n      calldatasize\n      sub\n      dup2\n      add\n      swap1\n      tag_49\n      swap2\n      swap1\n      tag_50\n      jump\t// in\n    tag_49:\n      tag_51\n      jump\t// in\n    tag_48:\n      stop\n        /* \"contracts/SmartContract.sol\":1836:2471  function transfer(address payable _to, uint _amount, bytes memory _payload) public returns(bytes memory){... */\n    tag_10:\n      callvalue\n      dup1\n      iszero\n      tag_52\n      jumpi\n      revert(0x00, 0x00)\n    tag_52:\n      pop\n      tag_53\n      0x04\n      dup1\n      calldatasize\n      sub\n      dup2\n      add\n      swap1\n      tag_54\n      swap2\n      swap1\n      tag_55\n      jump\t// in\n    tag_54:\n      tag_56\n      jump\t// in\n    tag_53:\n      mload(0x40)\n      tag_57\n      swap2\n      swap1\n      tag_58\n      jump\t// in\n    tag_57:\n      mload(0x40)\n      dup1\n      swap2\n      sub\n      swap1\n      return\n        /* \"contracts/SmartContract.sol\":732:904  function setGuardians(address _isGuardian) public {... */\n    tag_11:\n      callvalue\n      dup1\n      iszero\n      tag_59\n      jumpi\n      revert(0x00, 0x00)\n    tag_59:\n      pop\n      tag_60\n      0x04\n      dup1\n      calldatasize\n      sub\n      dup2\n      add\n      swap1\n      tag_61\n      swap2\n      swap1\n      tag_18\n      jump\t// in\n    tag_61:\n      tag_62\n      jump\t// in\n    tag_60:\n      stop\n        /* \"contracts/SmartContract.sol\":407:448  mapping(address => bool) public guardians */\n    tag_19:\n      mstore(0x20, 0x03)\n      dup1\n      0x00\n      mstore\n      keccak256(0x00, 0x40)\n      0x00\n      swap2\n      pop\n      sload\n      swap1\n      0x0100\n      exp\n      swap1\n      div\n      0xff\n      and\n      dup2\n      jump\t// out\n        /* \"contracts/SmartContract.sol\":351:398  mapping(address => bool) public isAllowedToSend */\n    tag_25:\n      mstore(0x20, 0x02)\n      dup1\n      0x00\n      mstore\n      keccak256(0x00, 0x40)\n      0x00\n      swap2\n      pop\n      sload\n      swap1\n      0x0100\n      exp\n      swap1\n      div\n      0xff\n      and\n      dup2\n      jump\t// out\n        /* \"contracts/SmartContract.sol\":1503:1828  function setAllowance(address _for, uint _amount) public {... */\n    tag_31:\n        /* \"contracts/SmartContract.sol\":1593:1598  owner */\n      0x00\n      0x00\n      swap1\n      sload\n      swap1\n      0x0100\n      exp\n      swap1\n      div\n      0xffffffffffffffffffffffffffffffffffffffff\n      and\n        /* \"contracts/SmartContract.sol\":1579:1598  msg.sender == owner */\n      0xffffffffffffffffffffffffffffffffffffffff\n      and\n        /* \"contracts/SmartContract.sol\":1579:1589  msg.sender */\n      caller\n        /* \"contracts/SmartContract.sol\":1579:1598  msg.sender == owner */\n      0xffffffffffffffffffffffffffffffffffffffff\n      and\n      eq\n        /* \"contracts/SmartContract.sol\":1571:1634  require(msg.sender == owner, \"You are not the owner, aborting\") */\n      tag_64\n      jumpi\n      mload(0x40)\n      0x08c379a000000000000000000000000000000000000000000000000000000000\n      dup2\n      mstore\n      0x04\n      add\n      tag_65\n      swap1\n      tag_66\n      jump\t// in\n    tag_65:\n      mload(0x40)\n      dup1\n      swap2\n      sub\n      swap1\n      revert\n    tag_64:\n        /* \"contracts/SmartContract.sol\":1669:1676  _amount */\n      dup1\n        /* \"contracts/SmartContract.sol\":1645:1654  allowance */\n      0x01\n        /* \"contracts/SmartContract.sol\":1645:1666  allowance[msg.sender] */\n      0x00\n        /* \"contracts/SmartContract.sol\":1655:1665  msg.sender */\n      caller\n        /* \"contracts/SmartContract.sol\":1645:1666  allowance[msg.sender] */\n      0xffffffffffffffffffffffffffffffffffffffff\n      and\n      0xffffffffffffffffffffffffffffffffffffffff\n      and\n      dup2\n      mstore\n      0x20\n      add\n      swap1\n      dup2\n      mstore\n      0x20\n      add\n      0x00\n      keccak256\n        /* \"contracts/SmartContract.sol\":1645:1676  allowance[msg.sender] = _amount */\n      dup2\n      swap1\n      sstore\n      pop\n        /* \"contracts/SmartContract.sol\":1702:1703  0 */\n      0x00\n        /* \"contracts/SmartContract.sol\":1692:1699  _amount */\n      dup2\n        /* \"contracts/SmartContract.sol\":1692:1703  _amount > 0 */\n      gt\n        /* \"contracts/SmartContract.sol\":1689:1821  if(_amount > 0){... */\n      iszero\n      tag_67\n      jumpi\n        /* \"contracts/SmartContract.sol\":1743:1747  true */\n      0x01\n        /* \"contracts/SmartContract.sol\":1719:1734  isAllowedToSend */\n      0x02\n        /* \"contracts/SmartContract.sol\":1719:1740  isAllowedToSend[_for] */\n      0x00\n        /* \"contracts/SmartContract.sol\":1735:1739  _for */\n      dup5\n        /* \"contracts/SmartContract.sol\":1719:1740  isAllowedToSend[_for] */\n      0xffffffffffffffffffffffffffffffffffffffff\n      and\n      0xffffffffffffffffffffffffffffffffffffffff\n      and\n      dup2\n      mstore\n      0x20\n      add\n      swap1\n      dup2\n      mstore\n      0x20\n      add\n      0x00\n      keccak256\n      0x00\n        /* \"contracts/SmartContract.sol\":1719:1747  isAllowedToSend[_for] = true */\n      0x0100\n      exp\n      dup2\n      sload\n      dup2\n      0xff\n      mul\n      not\n      and\n      swap1\n      dup4\n      iszero\n      iszero\n      mul\n      or\n      swap1\n      sstore\n      pop\n        /* \"contracts/SmartContract.sol\":1689:1821  if(_amount > 0){... */\n      jump(tag_68)\n    tag_67:\n        /* \"contracts/SmartContract.sol\":1804:1809  false */\n      0x00\n        /* \"contracts/SmartContract.sol\":1780:1795  isAllowedToSend */\n      0x02\n        /* \"contracts/SmartContract.sol\":1780:1801  isAllowedToSend[_for] */\n      0x00\n        /* \"contracts/SmartContract.sol\":1796:1800  _for */\n      dup5\n        /* \"contracts/SmartContract.sol\":1780:1801  isAllowedToSend[_for] */\n      0xffffffffffffffffffffffffffffffffffffffff\n      and\n      0xffffffffffffffffffffffffffffffffffffffff\n      and\n      dup2\n      mstore\n      0x20\n      add\n      swap1\n      dup2\n      mstore\n      0x20\n      add\n      0x00\n      keccak256\n      0x00\n        /* \"contracts/SmartContract.sol\":1780:1809  isAllowedToSend[_for] = false */\n      0x0100\n      exp\n      dup2\n      sload\n      dup2\n      0xff\n      mul\n      not\n      and\n      swap1\n      dup4\n      iszero\n      iszero\n      mul\n      or\n      swap1\n      sstore\n      pop\n        /* \"contracts/SmartContract.sol\":1689:1821  if(_amount > 0){... */\n    tag_68:\n        /* \"contracts/SmartContract.sol\":1503:1828  function setAllowance(address _for, uint _amount) public {... */\n      pop\n      pop\n      jump\t// out\n        /* \"contracts/SmartContract.sol\":303:344  mapping(address => uint) public allowance */\n    tag_35:\n      mstore(0x20, 0x01)\n      dup1\n      0x00\n      mstore\n      keccak256(0x00, 0x40)\n      0x00\n      swap2\n      pop\n      swap1\n      pop\n      sload\n      dup2\n      jump\t// out\n        /* \"contracts/SmartContract.sol\":597:654  uint public constant confirmationsFromGuardiansForReset=3 */\n    tag_40:\n        /* \"contracts/SmartContract.sol\":653:654  3 */\n      0x03\n        /* \"contracts/SmartContract.sol\":597:654  uint public constant confirmationsFromGuardiansForReset=3 */\n      dup2\n      jump\t// out\n        /* \"contracts/SmartContract.sol\":266:294  address payable public owner */\n    tag_44:\n      0x00\n      0x00\n      swap1\n      sload\n      swap1\n      0x0100\n      exp\n      swap1\n      div\n      0xffffffffffffffffffffffffffffffffffffffff\n      and\n      dup2\n      jump\t// out\n        /* \"contracts/SmartContract.sol\":912:1495  function proposeNewOwner(address payable  _newOwner) public{... */\n    tag_51:\n        /* \"contracts/SmartContract.sol\":990:999  guardians */\n      0x03\n        /* \"contracts/SmartContract.sol\":990:1011  guardians[msg.sender] */\n      0x00\n        /* \"contracts/SmartContract.sol\":1000:1010  msg.sender */\n      caller\n        /* \"contracts/SmartContract.sol\":990:1011  guardians[msg.sender] */\n      0xffffffffffffffffffffffffffffffffffffffff\n      and\n      0xffffffffffffffffffffffffffffffffffffffff\n      and\n      dup2\n      mstore\n      0x20\n      add\n      swap1\n      dup2\n      mstore\n      0x20\n      add\n      0x00\n      keccak256\n      0x00\n      swap1\n      sload\n      swap1\n      0x0100\n      exp\n      swap1\n      div\n      0xff\n      and\n        /* \"contracts/SmartContract.sol\":982:1060  require(guardians[msg.sender],\"You are not guardian of this wallet, aborting\") */\n      tag_70\n      jumpi\n      mload(0x40)\n      0x08c379a000000000000000000000000000000000000000000000000000000000\n      dup2\n      mstore\n      0x04\n      add\n      tag_71\n      swap1\n      tag_72\n      jump\t// in\n    tag_71:\n      mload(0x40)\n      dup1\n      swap2\n      sub\n      swap1\n      revert\n    tag_70:\n        /* \"contracts/SmartContract.sol\":1130:1135  false */\n      0x00\n        /* \"contracts/SmartContract.sol\":1079:1135  nextOwnerGuardianVotedBool[_newOwner][msg.sender]==false */\n      iszero\n      iszero\n        /* \"contracts/SmartContract.sol\":1079:1105  nextOwnerGuardianVotedBool */\n      0x04\n        /* \"contracts/SmartContract.sol\":1079:1116  nextOwnerGuardianVotedBool[_newOwner] */\n      0x00\n        /* \"contracts/SmartContract.sol\":1106:1115  _newOwner */\n      dup4\n        /* \"contracts/SmartContract.sol\":1079:1116  nextOwnerGuardianVotedBool[_newOwner] */\n      0xffffffffffffffffffffffffffffffffffffffff\n      and\n      0xffffffffffffffffffffffffffffffffffffffff\n      and\n      dup2\n      mstore\n      0x20\n      add\n      swap1\n      dup2\n      mstore\n      0x20\n      add\n      0x00\n      keccak256\n        /* \"contracts/SmartContract.sol\":1079:1128  nextOwnerGuardianVotedBool[_newOwner][msg.sender] */\n      0x00\n        /* \"contracts/SmartContract.sol\":1117:1127  msg.sender */\n      caller\n        /* \"contracts/SmartContract.sol\":1079:1128  nextOwnerGuardianVotedBool[_newOwner][msg.sender] */\n      0xffffffffffffffffffffffffffffffffffffffff\n      and\n      0xffffffffffffffffffffffffffffffffffffffff\n      and\n      dup2\n      mstore\n      0x20\n      add\n      swap1\n      dup2\n      mstore\n      0x20\n      add\n      0x00\n      keccak256\n      0x00\n      swap1\n      sload\n      swap1\n      0x0100\n      exp\n      swap1\n      div\n      0xff\n      and\n        /* \"contracts/SmartContract.sol\":1079:1135  nextOwnerGuardianVotedBool[_newOwner][msg.sender]==false */\n      iszero\n      iszero\n      eq\n        /* \"contracts/SmartContract.sol\":1071:1167  require(nextOwnerGuardianVotedBool[_newOwner][msg.sender]==false, \"You already voted, aborting\") */\n      tag_73\n      jumpi\n      mload(0x40)\n      0x08c379a000000000000000000000000000000000000000000000000000000000\n      dup2\n      mstore\n      0x04\n      add\n      tag_74\n      swap1\n      tag_75\n      jump\t// in\n    tag_74:\n      mload(0x40)\n      dup1\n      swap2\n      sub\n      swap1\n      revert\n    tag_73:\n        /* \"contracts/SmartContract.sol\":1195:1204  nextOwner */\n      0x05\n      0x00\n      swap1\n      sload\n      swap1\n      0x0100\n      exp\n      swap1\n      div\n      0xffffffffffffffffffffffffffffffffffffffff\n      and\n        /* \"contracts/SmartContract.sol\":1181:1204  _newOwner !=  nextOwner */\n      0xffffffffffffffffffffffffffffffffffffffff\n      and\n        /* \"contracts/SmartContract.sol\":1181:1190  _newOwner */\n      dup2\n        /* \"contracts/SmartContract.sol\":1181:1204  _newOwner !=  nextOwner */\n      0xffffffffffffffffffffffffffffffffffffffff\n      and\n      eq\n        /* \"contracts/SmartContract.sol\":1178:1291  if(_newOwner !=  nextOwner){... */\n      tag_76\n      jumpi\n        /* \"contracts/SmartContract.sol\":1232:1241  _newOwner */\n      dup1\n        /* \"contracts/SmartContract.sol\":1220:1229  nextOwner */\n      0x05\n      0x00\n        /* \"contracts/SmartContract.sol\":1220:1241  nextOwner = _newOwner */\n      0x0100\n      exp\n      dup2\n      sload\n      dup2\n      0xffffffffffffffffffffffffffffffffffffffff\n      mul\n      not\n      and\n      swap1\n      dup4\n      0xffffffffffffffffffffffffffffffffffffffff\n      and\n      mul\n      or\n      swap1\n      sstore\n      pop\n        /* \"contracts/SmartContract.sol\":1278:1279  0 */\n      0x00\n        /* \"contracts/SmartContract.sol\":1256:1275  guardiansResetCount */\n      0x06\n        /* \"contracts/SmartContract.sol\":1256:1279  guardiansResetCount = 0 */\n      dup2\n      swap1\n      sstore\n      pop\n        /* \"contracts/SmartContract.sol\":1178:1291  if(_newOwner !=  nextOwner){... */\n    tag_76:\n        /* \"contracts/SmartContract.sol\":1303:1322  guardiansResetCount */\n      0x06\n      0x00\n        /* \"contracts/SmartContract.sol\":1303:1324  guardiansResetCount++ */\n      dup2\n      sload\n      dup1\n      swap3\n      swap2\n      swap1\n      tag_77\n      swap1\n      tag_78\n      jump\t// in\n    tag_77:\n      swap2\n      swap1\n      pop\n      sstore\n      pop\n        /* \"contracts/SmartContract.sol\":653:654  3 */\n      0x03\n        /* \"contracts/SmartContract.sol\":1340:1359  guardiansResetCount */\n      sload(0x06)\n        /* \"contracts/SmartContract.sol\":1340:1397  guardiansResetCount >= confirmationsFromGuardiansForReset */\n      lt\n        /* \"contracts/SmartContract.sol\":1337:1488  if(guardiansResetCount >= confirmationsFromGuardiansForReset){... */\n      tag_79\n      jumpi\n        /* \"contracts/SmartContract.sol\":1421:1430  nextOwner */\n      0x05\n      0x00\n      swap1\n      sload\n      swap1\n      0x0100\n      exp\n      swap1\n      div\n      0xffffffffffffffffffffffffffffffffffffffff\n      and\n        /* \"contracts/SmartContract.sol\":1413:1418  owner */\n      0x00\n      0x00\n        /* \"contracts/SmartContract.sol\":1413:1430  owner = nextOwner */\n      0x0100\n      exp\n      dup2\n      sload\n      dup2\n      0xffffffffffffffffffffffffffffffffffffffff\n      mul\n      not\n      and\n      swap1\n      dup4\n      0xffffffffffffffffffffffffffffffffffffffff\n      and\n      mul\n      or\n      swap1\n      sstore\n      pop\n        /* \"contracts/SmartContract.sol\":1473:1474  0 */\n      0x00\n        /* \"contracts/SmartContract.sol\":1445:1454  nextOwner */\n      0x05\n      0x00\n        /* \"contracts/SmartContract.sol\":1445:1476  nextOwner = payable(address(0)) */\n      0x0100\n      exp\n      dup2\n      sload\n      dup2\n      0xffffffffffffffffffffffffffffffffffffffff\n      mul\n      not\n      and\n      swap1\n      dup4\n      0xffffffffffffffffffffffffffffffffffffffff\n      and\n      mul\n      or\n      swap1\n      sstore\n      pop\n        /* \"contracts/SmartContract.sol\":1337:1488  if(guardiansResetCount >= confirmationsFromGuardiansForReset){... */\n    tag_79:\n        /* \"contracts/SmartContract.sol\":912:1495  function proposeNewOwner(address payable  _newOwner) public{... */\n      pop\n      jump\t// out\n        /* \"contracts/SmartContract.sol\":1836:2471  function transfer(address payable _to, uint _amount, bytes memory _payload) public returns(bytes memory){... */\n    tag_56:\n        /* \"contracts/SmartContract.sol\":1927:1939  bytes memory */\n      0x60\n        /* \"contracts/SmartContract.sol\":1968:1973  owner */\n      0x00\n      0x00\n      swap1\n      sload\n      swap1\n      0x0100\n      exp\n      swap1\n      div\n      0xffffffffffffffffffffffffffffffffffffffff\n      and\n        /* \"contracts/SmartContract.sol\":1954:1973  msg.sender != owner */\n      0xffffffffffffffffffffffffffffffffffffffff\n      and\n        /* \"contracts/SmartContract.sol\":1954:1964  msg.sender */\n      caller\n        /* \"contracts/SmartContract.sol\":1954:1973  msg.sender != owner */\n      0xffffffffffffffffffffffffffffffffffffffff\n      and\n      eq\n        /* \"contracts/SmartContract.sol\":1951:2282  if(msg.sender != owner){... */\n      tag_81\n      jumpi\n        /* \"contracts/SmartContract.sol\":1997:2012  isAllowedToSend */\n      0x02\n        /* \"contracts/SmartContract.sol\":1997:2024  isAllowedToSend[msg.sender] */\n      0x00\n        /* \"contracts/SmartContract.sol\":2013:2023  msg.sender */\n      caller\n        /* \"contracts/SmartContract.sol\":1997:2024  isAllowedToSend[msg.sender] */\n      0xffffffffffffffffffffffffffffffffffffffff\n      and\n      0xffffffffffffffffffffffffffffffffffffffff\n      and\n      dup2\n      mstore\n      0x20\n      add\n      swap1\n      dup2\n      mstore\n      0x20\n      add\n      0x00\n      keccak256\n      0x00\n      swap1\n      sload\n      swap1\n      0x0100\n      exp\n      swap1\n      div\n      0xff\n      and\n        /* \"contracts/SmartContract.sol\":1989:2100  require(isAllowedToSend[msg.sender], \"You are not allowed to send anything from this smart contract, aborting\") */\n      tag_82\n      jumpi\n      mload(0x40)\n      0x08c379a000000000000000000000000000000000000000000000000000000000\n      dup2\n      mstore\n      0x04\n      add\n      tag_83\n      swap1\n      tag_84\n      jump\t// in\n    tag_83:\n      mload(0x40)\n      dup1\n      swap2\n      sub\n      swap1\n      revert\n    tag_82:\n        /* \"contracts/SmartContract.sol\":2148:2155  _amount */\n      dup3\n        /* \"contracts/SmartContract.sol\":2123:2132  allowance */\n      0x01\n        /* \"contracts/SmartContract.sol\":2123:2144  allowance[msg.sender] */\n      0x00\n        /* \"contracts/SmartContract.sol\":2133:2143  msg.sender */\n      caller\n        /* \"contracts/SmartContract.sol\":2123:2144  allowance[msg.sender] */\n      0xffffffffffffffffffffffffffffffffffffffff\n      and\n      0xffffffffffffffffffffffffffffffffffffffff\n      and\n      dup2\n      mstore\n      0x20\n      add\n      swap1\n      dup2\n      mstore\n      0x20\n      add\n      0x00\n      keccak256\n      sload\n        /* \"contracts/SmartContract.sol\":2123:2155  allowance[msg.sender] >= _amount */\n      lt\n      iszero\n        /* \"contracts/SmartContract.sol\":2115:2221  require(allowance[msg.sender] >= _amount, \"You are trying to send more than you are allowed to, aborting\") */\n      tag_85\n      jumpi\n      mload(0x40)\n      0x08c379a000000000000000000000000000000000000000000000000000000000\n      dup2\n      mstore\n      0x04\n      add\n      tag_86\n      swap1\n      tag_87\n      jump\t// in\n    tag_86:\n      mload(0x40)\n      dup1\n      swap2\n      sub\n      swap1\n      revert\n    tag_85:\n        /* \"contracts/SmartContract.sol\":2263:2270  _amount */\n      dup3\n        /* \"contracts/SmartContract.sol\":2238:2247  allowance */\n      0x01\n        /* \"contracts/SmartContract.sol\":2238:2259  allowance[msg.sender] */\n      0x00\n        /* \"contracts/SmartContract.sol\":2248:2258  msg.sender */\n      caller\n        /* \"contracts/SmartContract.sol\":2238:2259  allowance[msg.sender] */\n      0xffffffffffffffffffffffffffffffffffffffff\n      and\n      0xffffffffffffffffffffffffffffffffffffffff\n      and\n      dup2\n      mstore\n      0x20\n      add\n      swap1\n      dup2\n      mstore\n      0x20\n      add\n      0x00\n      keccak256\n      0x00\n        /* \"contracts/SmartContract.sol\":2238:2270  allowance[msg.sender] -= _amount */\n      dup3\n      dup3\n      sload\n      tag_88\n      swap2\n      swap1\n      tag_89\n      jump\t// in\n    tag_88:\n      swap3\n      pop\n      pop\n      dup2\n      swap1\n      sstore\n      pop\n        /* \"contracts/SmartContract.sol\":1951:2282  if(msg.sender != owner){... */\n    tag_81:\n        /* \"contracts/SmartContract.sol\":2295:2307  bool success */\n      0x00\n        /* \"contracts/SmartContract.sol\":2309:2332  bytes memory returnData */\n      0x00\n        /* \"contracts/SmartContract.sol\":2336:2339  _to */\n      dup6\n        /* \"contracts/SmartContract.sol\":2336:2344  _to.call */\n      0xffffffffffffffffffffffffffffffffffffffff\n      and\n        /* \"contracts/SmartContract.sol\":2352:2359  _amount */\n      dup6\n        /* \"contracts/SmartContract.sol\":2361:2369  _payload */\n      dup6\n        /* \"contracts/SmartContract.sol\":2336:2370  _to.call{value: _amount}(_payload) */\n      mload(0x40)\n      tag_90\n      swap2\n      swap1\n      tag_91\n      jump\t// in\n    tag_90:\n      0x00\n      mload(0x40)\n      dup1\n      dup4\n      sub\n      dup2\n      dup6\n      dup8\n      gas\n      call\n      swap3\n      pop\n      pop\n      pop\n      returndatasize\n      dup1\n      0x00\n      dup2\n      eq\n      tag_94\n      jumpi\n      mload(0x40)\n      swap2\n      pop\n      and(add(returndatasize, 0x3f), not(0x1f))\n      dup3\n      add\n      0x40\n      mstore\n      returndatasize\n      dup3\n      mstore\n      returndatasize\n      0x00\n      0x20\n      dup5\n      add\n      returndatacopy\n      jump(tag_93)\n    tag_94:\n      0x60\n      swap2\n      pop\n    tag_93:\n      pop\n        /* \"contracts/SmartContract.sol\":2294:2370  (bool success, bytes memory returnData) = _to.call{value: _amount}(_payload) */\n      swap2\n      pop\n      swap2\n      pop\n        /* \"contracts/SmartContract.sol\":2389:2396  success */\n      dup2\n        /* \"contracts/SmartContract.sol\":2381:2435  require(success, \"Aborting, call was not successful \") */\n      tag_95\n      jumpi\n      mload(0x40)\n      0x08c379a000000000000000000000000000000000000000000000000000000000\n      dup2\n      mstore\n      0x04\n      add\n      tag_96\n      swap1\n      tag_97\n      jump\t// in\n    tag_96:\n      mload(0x40)\n      dup1\n      swap2\n      sub\n      swap1\n      revert\n    tag_95:\n        /* \"contracts/SmartContract.sol\":2453:2463  returnData */\n      dup1\n        /* \"contracts/SmartContract.sol\":2446:2463  return returnData */\n      swap3\n      pop\n      pop\n      pop\n        /* \"contracts/SmartContract.sol\":1836:2471  function transfer(address payable _to, uint _amount, bytes memory _payload) public returns(bytes memory){... */\n      swap4\n      swap3\n      pop\n      pop\n      pop\n      jump\t// out\n        /* \"contracts/SmartContract.sol\":732:904  function setGuardians(address _isGuardian) public {... */\n    tag_62:\n        /* \"contracts/SmartContract.sol\":815:820  owner */\n      0x00\n      0x00\n      swap1\n      sload\n      swap1\n      0x0100\n      exp\n      swap1\n      div\n      0xffffffffffffffffffffffffffffffffffffffff\n      and\n        /* \"contracts/SmartContract.sol\":801:820  msg.sender == owner */\n      0xffffffffffffffffffffffffffffffffffffffff\n      and\n        /* \"contracts/SmartContract.sol\":801:811  msg.sender */\n      caller\n        /* \"contracts/SmartContract.sol\":801:820  msg.sender == owner */\n      0xffffffffffffffffffffffffffffffffffffffff\n      and\n      eq\n        /* \"contracts/SmartContract.sol\":793:856  require(msg.sender == owner, \"You are not the owner, aborting\") */\n      tag_99\n      jumpi\n      mload(0x40)\n      0x08c379a000000000000000000000000000000000000000000000000000000000\n      dup2\n      mstore\n      0x04\n      add\n      tag_100\n      swap1\n      tag_66\n      jump\t// in\n    tag_100:\n      mload(0x40)\n      dup1\n      swap2\n      sub\n      swap1\n      revert\n    tag_99:\n        /* \"contracts/SmartContract.sol\":892:896  true */\n      0x01\n        /* \"contracts/SmartContract.sol\":867:876  guardians */\n      0x03\n        /* \"contracts/SmartContract.sol\":867:889  guardians[_isGuardian] */\n      0x00\n        /* \"contracts/SmartContract.sol\":877:888  _isGuardian */\n      dup4\n        /* \"contracts/SmartContract.sol\":867:889  guardians[_isGuardian] */\n      0xffffffffffffffffffffffffffffffffffffffff\n      and\n      0xffffffffffffffffffffffffffffffffffffffff\n      and\n      dup2\n      mstore\n      0x20\n      add\n      swap1\n      dup2\n      mstore\n      0x20\n      add\n      0x00\n      keccak256\n      0x00\n        /* \"contracts/SmartContract.sol\":867:896  guardians[_isGuardian] = true */\n      0x0100\n      exp\n      dup2\n      sload\n      dup2\n      0xff\n      mul\n      not\n      and\n      swap1\n      dup4\n      iszero\n      iszero\n      mul\n      or\n      swap1\n      sstore\n      pop\n        /* \"contracts/SmartContract.sol\":732:904  function setGuardians(address _isGuardian) public {... */\n      pop\n      jump\t// out\n        /* \"#utility.yul\":7:82   */\n    tag_101:\n        /* \"#utility.yul\":40:46   */\n      0x00\n        /* \"#utility.yul\":73:75   */\n      0x40\n        /* \"#utility.yul\":67:76   */\n      mload\n        /* \"#utility.yul\":57:76   */\n      swap1\n      pop\n        /* \"#utility.yul\":7:82   */\n      swap1\n      jump\t// out\n        /* \"#utility.yul\":88:205   */\n    tag_102:\n        /* \"#utility.yul\":197:198   */\n      0x00\n        /* \"#utility.yul\":194:195   */\n      0x00\n        /* \"#utility.yul\":187:199   */\n      revert\n        /* \"#utility.yul\":211:328   */\n    tag_103:\n        /* \"#utility.yul\":320:321   */\n      0x00\n        /* \"#utility.yul\":317:318   */\n      0x00\n        /* \"#utility.yul\":310:322   */\n      revert\n        /* \"#utility.yul\":334:460   */\n    tag_104:\n        /* \"#utility.yul\":371:378   */\n      0x00\n        /* \"#utility.yul\":411:453   */\n      0xffffffffffffffffffffffffffffffffffffffff\n        /* \"#utility.yul\":404:409   */\n      dup3\n        /* \"#utility.yul\":400:454   */\n      and\n        /* \"#utility.yul\":389:454   */\n      swap1\n      pop\n        /* \"#utility.yul\":334:460   */\n      swap2\n      swap1\n      pop\n      jump\t// out\n        /* \"#utility.yul\":466:562   */\n    tag_105:\n        /* \"#utility.yul\":503:510   */\n      0x00\n        /* \"#utility.yul\":532:556   */\n      tag_154\n        /* \"#utility.yul\":550:555   */\n      dup3\n        /* \"#utility.yul\":532:556   */\n      tag_104\n      jump\t// in\n    tag_154:\n        /* \"#utility.yul\":521:556   */\n      swap1\n      pop\n        /* \"#utility.yul\":466:562   */\n      swap2\n      swap1\n      pop\n      jump\t// out\n        /* \"#utility.yul\":568:690   */\n    tag_106:\n        /* \"#utility.yul\":641:665   */\n      tag_156\n        /* \"#utility.yul\":659:664   */\n      dup2\n        /* \"#utility.yul\":641:665   */\n      tag_105\n      jump\t// in\n    tag_156:\n        /* \"#utility.yul\":634:639   */\n      dup2\n        /* \"#utility.yul\":631:666   */\n      eq\n        /* \"#utility.yul\":621:684   */\n      tag_157\n      jumpi\n        /* \"#utility.yul\":680:681   */\n      0x00\n        /* \"#utility.yul\":677:678   */\n      0x00\n        /* \"#utility.yul\":670:682   */\n      revert\n        /* \"#utility.yul\":621:684   */\n    tag_157:\n        /* \"#utility.yul\":568:690   */\n      pop\n      jump\t// out\n        /* \"#utility.yul\":696:835   */\n    tag_107:\n        /* \"#utility.yul\":742:747   */\n      0x00\n        /* \"#utility.yul\":780:786   */\n      dup2\n        /* \"#utility.yul\":767:787   */\n      calldataload\n        /* \"#utility.yul\":758:787   */\n      swap1\n      pop\n        /* \"#utility.yul\":796:829   */\n      tag_159\n        /* \"#utility.yul\":823:828   */\n      dup2\n        /* \"#utility.yul\":796:829   */\n      tag_106\n      jump\t// in\n    tag_159:\n        /* \"#utility.yul\":696:835   */\n      swap3\n      swap2\n      pop\n      pop\n      jump\t// out\n        /* \"#utility.yul\":841:1170   */\n    tag_18:\n        /* \"#utility.yul\":900:906   */\n      0x00\n        /* \"#utility.yul\":949:951   */\n      0x20\n        /* \"#utility.yul\":937:946   */\n      dup3\n        /* \"#utility.yul\":928:935   */\n      dup5\n        /* \"#utility.yul\":924:947   */\n      sub\n        /* \"#utility.yul\":920:952   */\n      slt\n        /* \"#utility.yul\":917:1036   */\n      iszero\n      tag_161\n      jumpi\n        /* \"#utility.yul\":955:1034   */\n      tag_162\n      tag_102\n      jump\t// in\n    tag_162:\n        /* \"#utility.yul\":917:1036   */\n    tag_161:\n        /* \"#utility.yul\":1075:1076   */\n      0x00\n        /* \"#utility.yul\":1100:1153   */\n      tag_163\n        /* \"#utility.yul\":1145:1152   */\n      dup5\n        /* \"#utility.yul\":1136:1142   */\n      dup3\n        /* \"#utility.yul\":1125:1134   */\n      dup6\n        /* \"#utility.yul\":1121:1143   */\n      add\n        /* \"#utility.yul\":1100:1153   */\n      tag_107\n      jump\t// in\n    tag_163:\n        /* \"#utility.yul\":1090:1153   */\n      swap2\n      pop\n        /* \"#utility.yul\":1046:1163   */\n      pop\n        /* \"#utility.yul\":841:1170   */\n      swap3\n      swap2\n      pop\n      pop\n      jump\t// out\n        /* \"#utility.yul\":1176:1266   */\n    tag_108:\n        /* \"#utility.yul\":1210:1217   */\n      0x00\n        /* \"#utility.yul\":1253:1258   */\n      dup2\n        /* \"#utility.yul\":1246:1259   */\n      iszero\n        /* \"#utility.yul\":1239:1260   */\n      iszero\n        /* \"#utility.yul\":1228:1260   */\n      swap1\n      pop\n        /* \"#utility.yul\":1176:1266   */\n      swap2\n      swap1\n      pop\n      jump\t// out\n        /* \"#utility.yul\":1272:1381   */\n    tag_109:\n        /* \"#utility.yul\":1353:1374   */\n      tag_166\n        /* \"#utility.yul\":1368:1373   */\n      dup2\n        /* \"#utility.yul\":1353:1374   */\n      tag_108\n      jump\t// in\n    tag_166:\n        /* \"#utility.yul\":1348:1351   */\n      dup3\n        /* \"#utility.yul\":1341:1375   */\n      mstore\n        /* \"#utility.yul\":1272:1381   */\n      pop\n      pop\n      jump\t// out\n        /* \"#utility.yul\":1387:1597   */\n    tag_21:\n        /* \"#utility.yul\":1474:1478   */\n      0x00\n        /* \"#utility.yul\":1512:1514   */\n      0x20\n        /* \"#utility.yul\":1501:1510   */\n      dup3\n        /* \"#utility.yul\":1497:1515   */\n      add\n        /* \"#utility.yul\":1489:1515   */\n      swap1\n      pop\n        /* \"#utility.yul\":1525:1590   */\n      tag_168\n        /* \"#utility.yul\":1587:1588   */\n      0x00\n        /* \"#utility.yul\":1576:1585   */\n      dup4\n        /* \"#utility.yul\":1572:1589   */\n      add\n        /* \"#utility.yul\":1563:1569   */\n      dup5\n        /* \"#utility.yul\":1525:1590   */\n      tag_109\n      jump\t// in\n    tag_168:\n        /* \"#utility.yul\":1387:1597   */\n      swap3\n      swap2\n      pop\n      pop\n      jump\t// out\n        /* \"#utility.yul\":1603:1680   */\n    tag_110:\n        /* \"#utility.yul\":1640:1647   */\n      0x00\n        /* \"#utility.yul\":1669:1674   */\n      dup2\n        /* \"#utility.yul\":1658:1674   */\n      swap1\n      pop\n        /* \"#utility.yul\":1603:1680   */\n      swap2\n      swap1\n      pop\n      jump\t// out\n        /* \"#utility.yul\":1686:1808   */\n    tag_111:\n        /* \"#utility.yul\":1759:1783   */\n      tag_171\n        /* \"#utility.yul\":1777:1782   */\n      dup2\n        /* \"#utility.yul\":1759:1783   */\n      tag_110\n      jump\t// in\n    tag_171:\n        /* \"#utility.yul\":1752:1757   */\n      dup2\n        /* \"#utility.yul\":1749:1784   */\n      eq\n        /* \"#utility.yul\":1739:1802   */\n      tag_172\n      jumpi\n        /* \"#utility.yul\":1798:1799   */\n      0x00\n        /* \"#utility.yul\":1795:1796   */\n      0x00\n        /* \"#utility.yul\":1788:1800   */\n      revert\n        /* \"#utility.yul\":1739:1802   */\n    tag_172:\n        /* \"#utility.yul\":1686:1808   */\n      pop\n      jump\t// out\n        /* \"#utility.yul\":1814:1953   */\n    tag_112:\n        /* \"#utility.yul\":1860:1865   */\n      0x00\n        /* \"#utility.yul\":1898:1904   */\n      dup2\n        /* \"#utility.yul\":1885:1905   */\n      calldataload\n        /* \"#utility.yul\":1876:1905   */\n      swap1\n      pop\n        /* \"#utility.yul\":1914:1947   */\n      tag_174\n        /* \"#utility.yul\":1941:1946   */\n      dup2\n        /* \"#utility.yul\":1914:1947   */\n      tag_111\n      jump\t// in\n    tag_174:\n        /* \"#utility.yul\":1814:1953   */\n      swap3\n      swap2\n      pop\n      pop\n      jump\t// out\n        /* \"#utility.yul\":1959:2433   */\n    tag_30:\n        /* \"#utility.yul\":2027:2033   */\n      0x00\n        /* \"#utility.yul\":2035:2041   */\n      0x00\n        /* \"#utility.yul\":2084:2086   */\n      0x40\n        /* \"#utility.yul\":2072:2081   */\n      dup4\n        /* \"#utility.yul\":2063:2070   */\n      dup6\n        /* \"#utility.yul\":2059:2082   */\n      sub\n        /* \"#utility.yul\":2055:2087   */\n      slt\n        /* \"#utility.yul\":2052:2171   */\n      iszero\n      tag_176\n      jumpi\n        /* \"#utility.yul\":2090:2169   */\n      tag_177\n      tag_102\n      jump\t// in\n    tag_177:\n        /* \"#utility.yul\":2052:2171   */\n    tag_176:\n        /* \"#utility.yul\":2210:2211   */\n      0x00\n        /* \"#utility.yul\":2235:2288   */\n      tag_178\n        /* \"#utility.yul\":2280:2287   */\n      dup6\n        /* \"#utility.yul\":2271:2277   */\n      dup3\n        /* \"#utility.yul\":2260:2269   */\n      dup7\n        /* \"#utility.yul\":2256:2278   */\n      add\n        /* \"#utility.yul\":2235:2288   */\n      tag_107\n      jump\t// in\n    tag_178:\n        /* \"#utility.yul\":2225:2288   */\n      swap3\n      pop\n        /* \"#utility.yul\":2181:2298   */\n      pop\n        /* \"#utility.yul\":2337:2339   */\n      0x20\n        /* \"#utility.yul\":2363:2416   */\n      tag_179\n        /* \"#utility.yul\":2408:2415   */\n      dup6\n        /* \"#utility.yul\":2399:2405   */\n      dup3\n        /* \"#utility.yul\":2388:2397   */\n      dup7\n        /* \"#utility.yul\":2384:2406   */\n      add\n        /* \"#utility.yul\":2363:2416   */\n      tag_112\n      jump\t// in\n    tag_179:\n        /* \"#utility.yul\":2353:2416   */\n      swap2\n      pop\n        /* \"#utility.yul\":2308:2426   */\n      pop\n        /* \"#utility.yul\":1959:2433   */\n      swap3\n      pop\n      swap3\n      swap1\n      pop\n      jump\t// out\n        /* \"#utility.yul\":2439:2557   */\n    tag_113:\n        /* \"#utility.yul\":2526:2550   */\n      tag_181\n        /* \"#utility.yul\":2544:2549   */\n      dup2\n        /* \"#utility.yul\":2526:2550   */\n      tag_110\n      jump\t// in\n    tag_181:\n        /* \"#utility.yul\":2521:2524   */\n      dup3\n        /* \"#utility.yul\":2514:2551   */\n      mstore\n        /* \"#utility.yul\":2439:2557   */\n      pop\n      pop\n      jump\t// out\n        /* \"#utility.yul\":2563:2785   */\n    tag_37:\n        /* \"#utility.yul\":2656:2660   */\n      0x00\n        /* \"#utility.yul\":2694:2696   */\n      0x20\n        /* \"#utility.yul\":2683:2692   */\n      dup3\n        /* \"#utility.yul\":2679:2697   */\n      add\n        /* \"#utility.yul\":2671:2697   */\n      swap1\n      pop\n        /* \"#utility.yul\":2707:2778   */\n      tag_183\n        /* \"#utility.yul\":2775:2776   */\n      0x00\n        /* \"#utility.yul\":2764:2773   */\n      dup4\n        /* \"#utility.yul\":2760:2777   */\n      add\n        /* \"#utility.yul\":2751:2757   */\n      dup5\n        /* \"#utility.yul\":2707:2778   */\n      tag_113\n      jump\t// in\n    tag_183:\n        /* \"#utility.yul\":2563:2785   */\n      swap3\n      swap2\n      pop\n      pop\n      jump\t// out\n        /* \"#utility.yul\":2791:2895   */\n    tag_114:\n        /* \"#utility.yul\":2836:2843   */\n      0x00\n        /* \"#utility.yul\":2865:2889   */\n      tag_185\n        /* \"#utility.yul\":2883:2888   */\n      dup3\n        /* \"#utility.yul\":2865:2889   */\n      tag_104\n      jump\t// in\n    tag_185:\n        /* \"#utility.yul\":2854:2889   */\n      swap1\n      pop\n        /* \"#utility.yul\":2791:2895   */\n      swap2\n      swap1\n      pop\n      jump\t// out\n        /* \"#utility.yul\":2901:3043   */\n    tag_115:\n        /* \"#utility.yul\":3004:3036   */\n      tag_187\n        /* \"#utility.yul\":3030:3035   */\n      dup2\n        /* \"#utility.yul\":3004:3036   */\n      tag_114\n      jump\t// in\n    tag_187:\n        /* \"#utility.yul\":2999:3002   */\n      dup3\n        /* \"#utility.yul\":2992:3037   */\n      mstore\n        /* \"#utility.yul\":2901:3043   */\n      pop\n      pop\n      jump\t// out\n        /* \"#utility.yul\":3049:3303   */\n    tag_46:\n        /* \"#utility.yul\":3158:3162   */\n      0x00\n        /* \"#utility.yul\":3196:3198   */\n      0x20\n        /* \"#utility.yul\":3185:3194   */\n      dup3\n        /* \"#utility.yul\":3181:3199   */\n      add\n        /* \"#utility.yul\":3173:3199   */\n      swap1\n      pop\n        /* \"#utility.yul\":3209:3296   */\n      tag_189\n        /* \"#utility.yul\":3293:3294   */\n      0x00\n        /* \"#utility.yul\":3282:3291   */\n      dup4\n        /* \"#utility.yul\":3278:3295   */\n      add\n        /* \"#utility.yul\":3269:3275   */\n      dup5\n        /* \"#utility.yul\":3209:3296   */\n      tag_115\n      jump\t// in\n    tag_189:\n        /* \"#utility.yul\":3049:3303   */\n      swap3\n      swap2\n      pop\n      pop\n      jump\t// out\n        /* \"#utility.yul\":3309:3447   */\n    tag_116:\n        /* \"#utility.yul\":3390:3422   */\n      tag_191\n        /* \"#utility.yul\":3416:3421   */\n      dup2\n        /* \"#utility.yul\":3390:3422   */\n      tag_114\n      jump\t// in\n    tag_191:\n        /* \"#utility.yul\":3383:3388   */\n      dup2\n        /* \"#utility.yul\":3380:3423   */\n      eq\n        /* \"#utility.yul\":3370:3441   */\n      tag_192\n      jumpi\n        /* \"#utility.yul\":3437:3438   */\n      0x00\n        /* \"#utility.yul\":3434:3435   */\n      0x00\n        /* \"#utility.yul\":3427:3439   */\n      revert\n        /* \"#utility.yul\":3370:3441   */\n    tag_192:\n        /* \"#utility.yul\":3309:3447   */\n      pop\n      jump\t// out\n        /* \"#utility.yul\":3453:3608   */\n    tag_117:\n        /* \"#utility.yul\":3507:3512   */\n      0x00\n        /* \"#utility.yul\":3545:3551   */\n      dup2\n        /* \"#utility.yul\":3532:3552   */\n      calldataload\n        /* \"#utility.yul\":3523:3552   */\n      swap1\n      pop\n        /* \"#utility.yul\":3561:3602   */\n      tag_194\n        /* \"#utility.yul\":3596:3601   */\n      dup2\n        /* \"#utility.yul\":3561:3602   */\n      tag_116\n      jump\t// in\n    tag_194:\n        /* \"#utility.yul\":3453:3608   */\n      swap3\n      swap2\n      pop\n      pop\n      jump\t// out\n        /* \"#utility.yul\":3614:3959   */\n    tag_50:\n        /* \"#utility.yul\":3681:3687   */\n      0x00\n        /* \"#utility.yul\":3730:3732   */\n      0x20\n        /* \"#utility.yul\":3718:3727   */\n      dup3\n        /* \"#utility.yul\":3709:3716   */\n      dup5\n        /* \"#utility.yul\":3705:3728   */\n      sub\n        /* \"#utility.yul\":3701:3733   */\n      slt\n        /* \"#utility.yul\":3698:3817   */\n      iszero\n      tag_196\n      jumpi\n        /* \"#utility.yul\":3736:3815   */\n      tag_197\n      tag_102\n      jump\t// in\n    tag_197:\n        /* \"#utility.yul\":3698:3817   */\n    tag_196:\n        /* \"#utility.yul\":3856:3857   */\n      0x00\n        /* \"#utility.yul\":3881:3942   */\n      tag_198\n        /* \"#utility.yul\":3934:3941   */\n      dup5\n        /* \"#utility.yul\":3925:3931   */\n      dup3\n        /* \"#utility.yul\":3914:3923   */\n      dup6\n        /* \"#utility.yul\":3910:3932   */\n      add\n        /* \"#utility.yul\":3881:3942   */\n      tag_117\n      jump\t// in\n    tag_198:\n        /* \"#utility.yul\":3871:3942   */\n      swap2\n      pop\n        /* \"#utility.yul\":3827:3952   */\n      pop\n        /* \"#utility.yul\":3614:3959   */\n      swap3\n      swap2\n      pop\n      pop\n      jump\t// out\n        /* \"#utility.yul\":3965:4082   */\n    tag_118:\n        /* \"#utility.yul\":4074:4075   */\n      0x00\n        /* \"#utility.yul\":4071:4072   */\n      0x00\n        /* \"#utility.yul\":4064:4076   */\n      revert\n        /* \"#utility.yul\":4088:4205   */\n    tag_119:\n        /* \"#utility.yul\":4197:4198   */\n      0x00\n        /* \"#utility.yul\":4194:4195   */\n      0x00\n        /* \"#utility.yul\":4187:4199   */\n      revert\n        /* \"#utility.yul\":4211:4313   */\n    tag_120:\n        /* \"#utility.yul\":4252:4258   */\n      0x00\n        /* \"#utility.yul\":4303:4305   */\n      0x1f\n        /* \"#utility.yul\":4299:4306   */\n      not\n        /* \"#utility.yul\":4294:4296   */\n      0x1f\n        /* \"#utility.yul\":4287:4292   */\n      dup4\n        /* \"#utility.yul\":4283:4297   */\n      add\n        /* \"#utility.yul\":4279:4307   */\n      and\n        /* \"#utility.yul\":4269:4307   */\n      swap1\n      pop\n        /* \"#utility.yul\":4211:4313   */\n      swap2\n      swap1\n      pop\n      jump\t// out\n        /* \"#utility.yul\":4319:4499   */\n    tag_121:\n        /* \"#utility.yul\":4367:4444   */\n      0x4e487b7100000000000000000000000000000000000000000000000000000000\n        /* \"#utility.yul\":4364:4365   */\n      0x00\n        /* \"#utility.yul\":4357:4445   */\n      mstore\n        /* \"#utility.yul\":4464:4468   */\n      0x41\n        /* \"#utility.yul\":4461:4462   */\n      0x04\n        /* \"#utility.yul\":4454:4469   */\n      mstore\n        /* \"#utility.yul\":4488:4492   */\n      0x24\n        /* \"#utility.yul\":4485:4486   */\n      0x00\n        /* \"#utility.yul\":4478:4493   */\n      revert\n        /* \"#utility.yul\":4505:4786   */\n    tag_122:\n        /* \"#utility.yul\":4588:4615   */\n      tag_204\n        /* \"#utility.yul\":4610:4614   */\n      dup3\n        /* \"#utility.yul\":4588:4615   */\n      tag_120\n      jump\t// in\n    tag_204:\n        /* \"#utility.yul\":4580:4586   */\n      dup2\n        /* \"#utility.yul\":4576:4616   */\n      add\n        /* \"#utility.yul\":4718:4724   */\n      dup2\n        /* \"#utility.yul\":4706:4716   */\n      dup2\n        /* \"#utility.yul\":4703:4725   */\n      lt\n        /* \"#utility.yul\":4682:4700   */\n      0xffffffffffffffff\n        /* \"#utility.yul\":4670:4680   */\n      dup3\n        /* \"#utility.yul\":4667:4701   */\n      gt\n        /* \"#utility.yul\":4664:4726   */\n      or\n        /* \"#utility.yul\":4661:4749   */\n      iszero\n      tag_205\n      jumpi\n        /* \"#utility.yul\":4729:4747   */\n      tag_206\n      tag_121\n      jump\t// in\n    tag_206:\n        /* \"#utility.yul\":4661:4749   */\n    tag_205:\n        /* \"#utility.yul\":4769:4779   */\n      dup1\n        /* \"#utility.yul\":4765:4767   */\n      0x40\n        /* \"#utility.yul\":4758:4780   */\n      mstore\n        /* \"#utility.yul\":4548:4786   */\n      pop\n        /* \"#utility.yul\":4505:4786   */\n      pop\n      pop\n      jump\t// out\n        /* \"#utility.yul\":4792:4921   */\n    tag_123:\n        /* \"#utility.yul\":4826:4832   */\n      0x00\n        /* \"#utility.yul\":4853:4873   */\n      tag_208\n      tag_101\n      jump\t// in\n    tag_208:\n        /* \"#utility.yul\":4843:4873   */\n      swap1\n      pop\n        /* \"#utility.yul\":4882:4915   */\n      tag_209\n        /* \"#utility.yul\":4910:4914   */\n      dup3\n        /* \"#utility.yul\":4902:4908   */\n      dup3\n        /* \"#utility.yul\":4882:4915   */\n      tag_122\n      jump\t// in\n    tag_209:\n        /* \"#utility.yul\":4792:4921   */\n      swap2\n      swap1\n      pop\n      jump\t// out\n        /* \"#utility.yul\":4927:5234   */\n    tag_124:\n        /* \"#utility.yul\":4988:4992   */\n      0x00\n        /* \"#utility.yul\":5078:5096   */\n      0xffffffffffffffff\n        /* \"#utility.yul\":5070:5076   */\n      dup3\n        /* \"#utility.yul\":5067:5097   */\n      gt\n        /* \"#utility.yul\":5064:5120   */\n      iszero\n      tag_211\n      jumpi\n        /* \"#utility.yul\":5100:5118   */\n      tag_212\n      tag_121\n      jump\t// in\n    tag_212:\n        /* \"#utility.yul\":5064:5120   */\n    tag_211:\n        /* \"#utility.yul\":5138:5167   */\n      tag_213\n        /* \"#utility.yul\":5160:5166   */\n      dup3\n        /* \"#utility.yul\":5138:5167   */\n      tag_120\n      jump\t// in\n    tag_213:\n        /* \"#utility.yul\":5130:5167   */\n      swap1\n      pop\n        /* \"#utility.yul\":5222:5226   */\n      0x20\n        /* \"#utility.yul\":5216:5220   */\n      dup2\n        /* \"#utility.yul\":5212:5227   */\n      add\n        /* \"#utility.yul\":5204:5227   */\n      swap1\n      pop\n        /* \"#utility.yul\":4927:5234   */\n      swap2\n      swap1\n      pop\n      jump\t// out\n        /* \"#utility.yul\":5240:5388   */\n    tag_125:\n        /* \"#utility.yul\":5338:5344   */\n      dup3\n        /* \"#utility.yul\":5333:5336   */\n      dup2\n        /* \"#utility.yul\":5328:5331   */\n      dup4\n        /* \"#utility.yul\":5315:5345   */\n      calldatacopy\n        /* \"#utility.yul\":5379:5380   */\n      0x00\n        /* \"#utility.yul\":5370:5376   */\n      dup4\n        /* \"#utility.yul\":5365:5368   */\n      dup4\n        /* \"#utility.yul\":5361:5377   */\n      add\n        /* \"#utility.yul\":5354:5381   */\n      mstore\n        /* \"#utility.yul\":5240:5388   */\n      pop\n      pop\n      pop\n      jump\t// out\n        /* \"#utility.yul\":5394:5817   */\n    tag_126:\n        /* \"#utility.yul\":5471:5476   */\n      0x00\n        /* \"#utility.yul\":5496:5561   */\n      tag_216\n        /* \"#utility.yul\":5512:5560   */\n      tag_217\n        /* \"#utility.yul\":5553:5559   */\n      dup5\n        /* \"#utility.yul\":5512:5560   */\n      tag_124\n      jump\t// in\n    tag_217:\n        /* \"#utility.yul\":5496:5561   */\n      tag_123\n      jump\t// in\n    tag_216:\n        /* \"#utility.yul\":5487:5561   */\n      swap1\n      pop\n        /* \"#utility.yul\":5584:5590   */\n      dup3\n        /* \"#utility.yul\":5577:5582   */\n      dup2\n        /* \"#utility.yul\":5570:5591   */\n      mstore\n        /* \"#utility.yul\":5622:5626   */\n      0x20\n        /* \"#utility.yul\":5615:5620   */\n      dup2\n        /* \"#utility.yul\":5611:5627   */\n      add\n        /* \"#utility.yul\":5660:5663   */\n      dup5\n        /* \"#utility.yul\":5651:5657   */\n      dup5\n        /* \"#utility.yul\":5646:5649   */\n      dup5\n        /* \"#utility.yul\":5642:5658   */\n      add\n        /* \"#utility.yul\":5639:5664   */\n      gt\n        /* \"#utility.yul\":5636:5748   */\n      iszero\n      tag_218\n      jumpi\n        /* \"#utility.yul\":5667:5746   */\n      tag_219\n      tag_119\n      jump\t// in\n    tag_219:\n        /* \"#utility.yul\":5636:5748   */\n    tag_218:\n        /* \"#utility.yul\":5757:5811   */\n      tag_220\n        /* \"#utility.yul\":5804:5810   */\n      dup5\n        /* \"#utility.yul\":5799:5802   */\n      dup3\n        /* \"#utility.yul\":5794:5797   */\n      dup6\n        /* \"#utility.yul\":5757:5811   */\n      tag_125\n      jump\t// in\n    tag_220:\n        /* \"#utility.yul\":5477:5817   */\n      pop\n        /* \"#utility.yul\":5394:5817   */\n      swap4\n      swap3\n      pop\n      pop\n      pop\n      jump\t// out\n        /* \"#utility.yul\":5836:6174   */\n    tag_127:\n        /* \"#utility.yul\":5891:5896   */\n      0x00\n        /* \"#utility.yul\":5940:5943   */\n      dup3\n        /* \"#utility.yul\":5933:5937   */\n      0x1f\n        /* \"#utility.yul\":5925:5931   */\n      dup4\n        /* \"#utility.yul\":5921:5938   */\n      add\n        /* \"#utility.yul\":5917:5944   */\n      slt\n        /* \"#utility.yul\":5907:6029   */\n      tag_222\n      jumpi\n        /* \"#utility.yul\":5948:6027   */\n      tag_223\n      tag_118\n      jump\t// in\n    tag_223:\n        /* \"#utility.yul\":5907:6029   */\n    tag_222:\n        /* \"#utility.yul\":6065:6071   */\n      dup2\n        /* \"#utility.yul\":6052:6072   */\n      calldataload\n        /* \"#utility.yul\":6090:6168   */\n      tag_224\n        /* \"#utility.yul\":6164:6167   */\n      dup5\n        /* \"#utility.yul\":6156:6162   */\n      dup3\n        /* \"#utility.yul\":6149:6153   */\n      0x20\n        /* \"#utility.yul\":6141:6147   */\n      dup7\n        /* \"#utility.yul\":6137:6154   */\n      add\n        /* \"#utility.yul\":6090:6168   */\n      tag_126\n      jump\t// in\n    tag_224:\n        /* \"#utility.yul\":6081:6168   */\n      swap2\n      pop\n        /* \"#utility.yul\":5897:6174   */\n      pop\n        /* \"#utility.yul\":5836:6174   */\n      swap3\n      swap2\n      pop\n      pop\n      jump\t// out\n        /* \"#utility.yul\":6180:6993   */\n    tag_55:\n        /* \"#utility.yul\":6274:6280   */\n      0x00\n        /* \"#utility.yul\":6282:6288   */\n      0x00\n        /* \"#utility.yul\":6290:6296   */\n      0x00\n        /* \"#utility.yul\":6339:6341   */\n      0x60\n        /* \"#utility.yul\":6327:6336   */\n      dup5\n        /* \"#utility.yul\":6318:6325   */\n      dup7\n        /* \"#utility.yul\":6314:6337   */\n      sub\n        /* \"#utility.yul\":6310:6342   */\n      slt\n        /* \"#utility.yul\":6307:6426   */\n      iszero\n      tag_226\n      jumpi\n        /* \"#utility.yul\":6345:6424   */\n      tag_227\n      tag_102\n      jump\t// in\n    tag_227:\n        /* \"#utility.yul\":6307:6426   */\n    tag_226:\n        /* \"#utility.yul\":6465:6466   */\n      0x00\n        /* \"#utility.yul\":6490:6551   */\n      tag_228\n        /* \"#utility.yul\":6543:6550   */\n      dup7\n        /* \"#utility.yul\":6534:6540   */\n      dup3\n        /* \"#utility.yul\":6523:6532   */\n      dup8\n        /* \"#utility.yul\":6519:6541   */\n      add\n        /* \"#utility.yul\":6490:6551   */\n      tag_117\n      jump\t// in\n    tag_228:\n        /* \"#utility.yul\":6480:6551   */\n      swap4\n      pop\n        /* \"#utility.yul\":6436:6561   */\n      pop\n        /* \"#utility.yul\":6600:6602   */\n      0x20\n        /* \"#utility.yul\":6626:6679   */\n      tag_229\n        /* \"#utility.yul\":6671:6678   */\n      dup7\n        /* \"#utility.yul\":6662:6668   */\n      dup3\n        /* \"#utility.yul\":6651:6660   */\n      dup8\n        /* \"#utility.yul\":6647:6669   */\n      add\n        /* \"#utility.yul\":6626:6679   */\n      tag_112\n      jump\t// in\n    tag_229:\n        /* \"#utility.yul\":6616:6679   */\n      swap3\n      pop\n        /* \"#utility.yul\":6571:6689   */\n      pop\n        /* \"#utility.yul\":6756:6758   */\n      0x40\n        /* \"#utility.yul\":6745:6754   */\n      dup5\n        /* \"#utility.yul\":6741:6759   */\n      add\n        /* \"#utility.yul\":6728:6760   */\n      calldataload\n        /* \"#utility.yul\":6787:6805   */\n      0xffffffffffffffff\n        /* \"#utility.yul\":6779:6785   */\n      dup2\n        /* \"#utility.yul\":6776:6806   */\n      gt\n        /* \"#utility.yul\":6773:6890   */\n      iszero\n      tag_230\n      jumpi\n        /* \"#utility.yul\":6809:6888   */\n      tag_231\n      tag_103\n      jump\t// in\n    tag_231:\n        /* \"#utility.yul\":6773:6890   */\n    tag_230:\n        /* \"#utility.yul\":6914:6976   */\n      tag_232\n        /* \"#utility.yul\":6968:6975   */\n      dup7\n        /* \"#utility.yul\":6959:6965   */\n      dup3\n        /* \"#utility.yul\":6948:6957   */\n      dup8\n        /* \"#utility.yul\":6944:6966   */\n      add\n        /* \"#utility.yul\":6914:6976   */\n      tag_127\n      jump\t// in\n    tag_232:\n        /* \"#utility.yul\":6904:6976   */\n      swap2\n      pop\n        /* \"#utility.yul\":6699:6986   */\n      pop\n        /* \"#utility.yul\":6180:6993   */\n      swap3\n      pop\n      swap3\n      pop\n      swap3\n      jump\t// out\n        /* \"#utility.yul\":6999:7097   */\n    tag_128:\n        /* \"#utility.yul\":7050:7056   */\n      0x00\n        /* \"#utility.yul\":7084:7089   */\n      dup2\n        /* \"#utility.yul\":7078:7090   */\n      mload\n        /* \"#utility.yul\":7068:7090   */\n      swap1\n      pop\n        /* \"#utility.yul\":6999:7097   */\n      swap2\n      swap1\n      pop\n      jump\t// out\n        /* \"#utility.yul\":7103:7271   */\n    tag_129:\n        /* \"#utility.yul\":7186:7197   */\n      0x00\n        /* \"#utility.yul\":7220:7226   */\n      dup3\n        /* \"#utility.yul\":7215:7218   */\n      dup3\n        /* \"#utility.yul\":7208:7227   */\n      mstore\n        /* \"#utility.yul\":7260:7264   */\n      0x20\n        /* \"#utility.yul\":7255:7258   */\n      dup3\n        /* \"#utility.yul\":7251:7265   */\n      add\n        /* \"#utility.yul\":7236:7265   */\n      swap1\n      pop\n        /* \"#utility.yul\":7103:7271   */\n      swap3\n      swap2\n      pop\n      pop\n      jump\t// out\n        /* \"#utility.yul\":7277:7416   */\n    tag_130:\n        /* \"#utility.yul\":7366:7372   */\n      dup3\n        /* \"#utility.yul\":7361:7364   */\n      dup2\n        /* \"#utility.yul\":7356:7359   */\n      dup4\n        /* \"#utility.yul\":7350:7373   */\n      mcopy\n        /* \"#utility.yul\":7407:7408   */\n      0x00\n        /* \"#utility.yul\":7398:7404   */\n      dup4\n        /* \"#utility.yul\":7393:7396   */\n      dup4\n        /* \"#utility.yul\":7389:7405   */\n      add\n        /* \"#utility.yul\":7382:7409   */\n      mstore\n        /* \"#utility.yul\":7277:7416   */\n      pop\n      pop\n      pop\n      jump\t// out\n        /* \"#utility.yul\":7422:7795   */\n    tag_131:\n        /* \"#utility.yul\":7508:7511   */\n      0x00\n        /* \"#utility.yul\":7536:7574   */\n      tag_237\n        /* \"#utility.yul\":7568:7573   */\n      dup3\n        /* \"#utility.yul\":7536:7574   */\n      tag_128\n      jump\t// in\n    tag_237:\n        /* \"#utility.yul\":7590:7660   */\n      tag_238\n        /* \"#utility.yul\":7653:7659   */\n      dup2\n        /* \"#utility.yul\":7648:7651   */\n      dup6\n        /* \"#utility.yul\":7590:7660   */\n      tag_129\n      jump\t// in\n    tag_238:\n        /* \"#utility.yul\":7583:7660   */\n      swap4\n      pop\n        /* \"#utility.yul\":7669:7734   */\n      tag_239\n        /* \"#utility.yul\":7727:7733   */\n      dup2\n        /* \"#utility.yul\":7722:7725   */\n      dup6\n        /* \"#utility.yul\":7715:7719   */\n      0x20\n        /* \"#utility.yul\":7708:7713   */\n      dup7\n        /* \"#utility.yul\":7704:7720   */\n      add\n        /* \"#utility.yul\":7669:7734   */\n      tag_130\n      jump\t// in\n    tag_239:\n        /* \"#utility.yul\":7759:7788   */\n      tag_240\n        /* \"#utility.yul\":7781:7787   */\n      dup2\n        /* \"#utility.yul\":7759:7788   */\n      tag_120\n      jump\t// in\n    tag_240:\n        /* \"#utility.yul\":7754:7757   */\n      dup5\n        /* \"#utility.yul\":7750:7789   */\n      add\n        /* \"#utility.yul\":7743:7789   */\n      swap2\n      pop\n        /* \"#utility.yul\":7512:7795   */\n      pop\n        /* \"#utility.yul\":7422:7795   */\n      swap3\n      swap2\n      pop\n      pop\n      jump\t// out\n        /* \"#utility.yul\":7801:8110   */\n    tag_58:\n        /* \"#utility.yul\":7912:7916   */\n      0x00\n        /* \"#utility.yul\":7950:7952   */\n      0x20\n        /* \"#utility.yul\":7939:7948   */\n      dup3\n        /* \"#utility.yul\":7935:7953   */\n      add\n        /* \"#utility.yul\":7927:7953   */\n      swap1\n      pop\n        /* \"#utility.yul\":7999:8008   */\n      dup2\n        /* \"#utility.yul\":7993:7997   */\n      dup2\n        /* \"#utility.yul\":7989:8009   */\n      sub\n        /* \"#utility.yul\":7985:7986   */\n      0x00\n        /* \"#utility.yul\":7974:7983   */\n      dup4\n        /* \"#utility.yul\":7970:7987   */\n      add\n        /* \"#utility.yul\":7963:8010   */\n      mstore\n        /* \"#utility.yul\":8027:8103   */\n      tag_242\n        /* \"#utility.yul\":8098:8102   */\n      dup2\n        /* \"#utility.yul\":8089:8095   */\n      dup5\n        /* \"#utility.yul\":8027:8103   */\n      tag_131\n      jump\t// in\n    tag_242:\n        /* \"#utility.yul\":8019:8103   */\n      swap1\n      pop\n        /* \"#utility.yul\":7801:8110   */\n      swap3\n      swap2\n      pop\n      pop\n      jump\t// out\n        /* \"#utility.yul\":8116:8285   */\n    tag_132:\n        /* \"#utility.yul\":8200:8211   */\n      0x00\n        /* \"#utility.yul\":8234:8240   */\n      dup3\n        /* \"#utility.yul\":8229:8232   */\n      dup3\n        /* \"#utility.yul\":8222:8241   */\n      mstore\n        /* \"#utility.yul\":8274:8278   */\n      0x20\n        /* \"#utility.yul\":8269:8272   */\n      dup3\n        /* \"#utility.yul\":8265:8279   */\n      add\n        /* \"#utility.yul\":8250:8279   */\n      swap1\n      pop\n        /* \"#utility.yul\":8116:8285   */\n      swap3\n      swap2\n      pop\n      pop\n      jump\t// out\n        /* \"#utility.yul\":8291:8472   */\n    tag_133:\n        /* \"#utility.yul\":8431:8464   */\n      0x596f7520617265206e6f7420746865206f776e65722c2061626f7274696e6700\n        /* \"#utility.yul\":8427:8428   */\n      0x00\n        /* \"#utility.yul\":8419:8425   */\n      dup3\n        /* \"#utility.yul\":8415:8429   */\n      add\n        /* \"#utility.yul\":8408:8465   */\n      mstore\n        /* \"#utility.yul\":8291:8472   */\n      pop\n      jump\t// out\n        /* \"#utility.yul\":8478:8844   */\n    tag_134:\n        /* \"#utility.yul\":8620:8623   */\n      0x00\n        /* \"#utility.yul\":8641:8708   */\n      tag_246\n        /* \"#utility.yul\":8705:8707   */\n      0x1f\n        /* \"#utility.yul\":8700:8703   */\n      dup4\n        /* \"#utility.yul\":8641:8708   */\n      tag_132\n      jump\t// in\n    tag_246:\n        /* \"#utility.yul\":8634:8708   */\n      swap2\n      pop\n        /* \"#utility.yul\":8717:8810   */\n      tag_247\n        /* \"#utility.yul\":8806:8809   */\n      dup3\n        /* \"#utility.yul\":8717:8810   */\n      tag_133\n      jump\t// in\n    tag_247:\n        /* \"#utility.yul\":8835:8837   */\n      0x20\n        /* \"#utility.yul\":8830:8833   */\n      dup3\n        /* \"#utility.yul\":8826:8838   */\n      add\n        /* \"#utility.yul\":8819:8838   */\n      swap1\n      pop\n        /* \"#utility.yul\":8478:8844   */\n      swap2\n      swap1\n      pop\n      jump\t// out\n        /* \"#utility.yul\":8850:9269   */\n    tag_66:\n        /* \"#utility.yul\":9016:9020   */\n      0x00\n        /* \"#utility.yul\":9054:9056   */\n      0x20\n        /* \"#utility.yul\":9043:9052   */\n      dup3\n        /* \"#utility.yul\":9039:9057   */\n      add\n        /* \"#utility.yul\":9031:9057   */\n      swap1\n      pop\n        /* \"#utility.yul\":9103:9112   */\n      dup2\n        /* \"#utility.yul\":9097:9101   */\n      dup2\n        /* \"#utility.yul\":9093:9113   */\n      sub\n        /* \"#utility.yul\":9089:9090   */\n      0x00\n        /* \"#utility.yul\":9078:9087   */\n      dup4\n        /* \"#utility.yul\":9074:9091   */\n      add\n        /* \"#utility.yul\":9067:9114   */\n      mstore\n        /* \"#utility.yul\":9131:9262   */\n      tag_249\n        /* \"#utility.yul\":9257:9261   */\n      dup2\n        /* \"#utility.yul\":9131:9262   */\n      tag_134\n      jump\t// in\n    tag_249:\n        /* \"#utility.yul\":9123:9262   */\n      swap1\n      pop\n        /* \"#utility.yul\":8850:9269   */\n      swap2\n      swap1\n      pop\n      jump\t// out\n        /* \"#utility.yul\":9275:9507   */\n    tag_135:\n        /* \"#utility.yul\":9415:9449   */\n      0x596f7520617265206e6f7420677561726469616e206f6620746869732077616c\n        /* \"#utility.yul\":9411:9412   */\n      0x00\n        /* \"#utility.yul\":9403:9409   */\n      dup3\n        /* \"#utility.yul\":9399:9413   */\n      add\n        /* \"#utility.yul\":9392:9450   */\n      mstore\n        /* \"#utility.yul\":9484:9499   */\n      0x6c65742c2061626f7274696e6700000000000000000000000000000000000000\n        /* \"#utility.yul\":9479:9481   */\n      0x20\n        /* \"#utility.yul\":9471:9477   */\n      dup3\n        /* \"#utility.yul\":9467:9482   */\n      add\n        /* \"#utility.yul\":9460:9500   */\n      mstore\n        /* \"#utility.yul\":9275:9507   */\n      pop\n      jump\t// out\n        /* \"#utility.yul\":9513:9879   */\n    tag_136:\n        /* \"#utility.yul\":9655:9658   */\n      0x00\n        /* \"#utility.yul\":9676:9743   */\n      tag_252\n        /* \"#utility.yul\":9740:9742   */\n      0x2d\n        /* \"#utility.yul\":9735:9738   */\n      dup4\n        /* \"#utility.yul\":9676:9743   */\n      tag_132\n      jump\t// in\n    tag_252:\n        /* \"#utility.yul\":9669:9743   */\n      swap2\n      pop\n        /* \"#utility.yul\":9752:9845   */\n      tag_253\n        /* \"#utility.yul\":9841:9844   */\n      dup3\n        /* \"#utility.yul\":9752:9845   */\n      tag_135\n      jump\t// in\n    tag_253:\n        /* \"#utility.yul\":9870:9872   */\n      0x40\n        /* \"#utility.yul\":9865:9868   */\n      dup3\n        /* \"#utility.yul\":9861:9873   */\n      add\n        /* \"#utility.yul\":9854:9873   */\n      swap1\n      pop\n        /* \"#utility.yul\":9513:9879   */\n      swap2\n      swap1\n      pop\n      jump\t// out\n        /* \"#utility.yul\":9885:10304   */\n    tag_72:\n        /* \"#utility.yul\":10051:10055   */\n      0x00\n        /* \"#utility.yul\":10089:10091   */\n      0x20\n        /* \"#utility.yul\":10078:10087   */\n      dup3\n        /* \"#utility.yul\":10074:10092   */\n      add\n        /* \"#utility.yul\":10066:10092   */\n      swap1\n      pop\n        /* \"#utility.yul\":10138:10147   */\n      dup2\n        /* \"#utility.yul\":10132:10136   */\n      dup2\n        /* \"#utility.yul\":10128:10148   */\n      sub\n        /* \"#utility.yul\":10124:10125   */\n      0x00\n        /* \"#utility.yul\":10113:10122   */\n      dup4\n        /* \"#utility.yul\":10109:10126   */\n      add\n        /* \"#utility.yul\":10102:10149   */\n      mstore\n        /* \"#utility.yul\":10166:10297   */\n      tag_255\n        /* \"#utility.yul\":10292:10296   */\n      dup2\n        /* \"#utility.yul\":10166:10297   */\n      tag_136\n      jump\t// in\n    tag_255:\n        /* \"#utility.yul\":10158:10297   */\n      swap1\n      pop\n        /* \"#utility.yul\":9885:10304   */\n      swap2\n      swap1\n      pop\n      jump\t// out\n        /* \"#utility.yul\":10310:10487   */\n    tag_137:\n        /* \"#utility.yul\":10450:10479   */\n      0x596f7520616c726561647920766f7465642c2061626f7274696e670000000000\n        /* \"#utility.yul\":10446:10447   */\n      0x00\n        /* \"#utility.yul\":10438:10444   */\n      dup3\n        /* \"#utility.yul\":10434:10448   */\n      add\n        /* \"#utility.yul\":10427:10480   */\n      mstore\n        /* \"#utility.yul\":10310:10487   */\n      pop\n      jump\t// out\n        /* \"#utility.yul\":10493:10859   */\n    tag_138:\n        /* \"#utility.yul\":10635:10638   */\n      0x00\n        /* \"#utility.yul\":10656:10723   */\n      tag_258\n        /* \"#utility.yul\":10720:10722   */\n      0x1b\n        /* \"#utility.yul\":10715:10718   */\n      dup4\n        /* \"#utility.yul\":10656:10723   */\n      tag_132\n      jump\t// in\n    tag_258:\n        /* \"#utility.yul\":10649:10723   */\n      swap2\n      pop\n        /* \"#utility.yul\":10732:10825   */\n      tag_259\n        /* \"#utility.yul\":10821:10824   */\n      dup3\n        /* \"#utility.yul\":10732:10825   */\n      tag_137\n      jump\t// in\n    tag_259:\n        /* \"#utility.yul\":10850:10852   */\n      0x20\n        /* \"#utility.yul\":10845:10848   */\n      dup3\n        /* \"#utility.yul\":10841:10853   */\n      add\n        /* \"#utility.yul\":10834:10853   */\n      swap1\n      pop\n        /* \"#utility.yul\":10493:10859   */\n      swap2\n      swap1\n      pop\n      jump\t// out\n        /* \"#utility.yul\":10865:11284   */\n    tag_75:\n        /* \"#utility.yul\":11031:11035   */\n      0x00\n        /* \"#utility.yul\":11069:11071   */\n      0x20\n        /* \"#utility.yul\":11058:11067   */\n      dup3\n        /* \"#utility.yul\":11054:11072   */\n      add\n        /* \"#utility.yul\":11046:11072   */\n      swap1\n      pop\n        /* \"#utility.yul\":11118:11127   */\n      dup2\n        /* \"#utility.yul\":11112:11116   */\n      dup2\n        /* \"#utility.yul\":11108:11128   */\n      sub\n        /* \"#utility.yul\":11104:11105   */\n      0x00\n        /* \"#utility.yul\":11093:11102   */\n      dup4\n        /* \"#utility.yul\":11089:11106   */\n      add\n        /* \"#utility.yul\":11082:11129   */\n      mstore\n        /* \"#utility.yul\":11146:11277   */\n      tag_261\n        /* \"#utility.yul\":11272:11276   */\n      dup2\n        /* \"#utility.yul\":11146:11277   */\n      tag_138\n      jump\t// in\n    tag_261:\n        /* \"#utility.yul\":11138:11277   */\n      swap1\n      pop\n        /* \"#utility.yul\":10865:11284   */\n      swap2\n      swap1\n      pop\n      jump\t// out\n        /* \"#utility.yul\":11290:11470   */\n    tag_139:\n        /* \"#utility.yul\":11338:11415   */\n      0x4e487b7100000000000000000000000000000000000000000000000000000000\n        /* \"#utility.yul\":11335:11336   */\n      0x00\n        /* \"#utility.yul\":11328:11416   */\n      mstore\n        /* \"#utility.yul\":11435:11439   */\n      0x11\n        /* \"#utility.yul\":11432:11433   */\n      0x04\n        /* \"#utility.yul\":11425:11440   */\n      mstore\n        /* \"#utility.yul\":11459:11463   */\n      0x24\n        /* \"#utility.yul\":11456:11457   */\n      0x00\n        /* \"#utility.yul\":11449:11464   */\n      revert\n        /* \"#utility.yul\":11476:11709   */\n    tag_78:\n        /* \"#utility.yul\":11515:11518   */\n      0x00\n        /* \"#utility.yul\":11538:11562   */\n      tag_264\n        /* \"#utility.yul\":11556:11561   */\n      dup3\n        /* \"#utility.yul\":11538:11562   */\n      tag_110\n      jump\t// in\n    tag_264:\n        /* \"#utility.yul\":11529:11562   */\n      swap2\n      pop\n        /* \"#utility.yul\":11584:11650   */\n      0xffffffffffffffffffffffffffffffffffffffffffffffffffffffffffffffff\n        /* \"#utility.yul\":11577:11582   */\n      dup3\n        /* \"#utility.yul\":11574:11651   */\n      sub\n        /* \"#utility.yul\":11571:11674   */\n      tag_265\n      jumpi\n        /* \"#utility.yul\":11654:11672   */\n      tag_266\n      tag_139\n      jump\t// in\n    tag_266:\n        /* \"#utility.yul\":11571:11674   */\n    tag_265:\n        /* \"#utility.yul\":11701:11702   */\n      0x01\n        /* \"#utility.yul\":11694:11699   */\n      dup3\n        /* \"#utility.yul\":11690:11703   */\n      add\n        /* \"#utility.yul\":11683:11703   */\n      swap1\n      pop\n        /* \"#utility.yul\":11476:11709   */\n      swap2\n      swap1\n      pop\n      jump\t// out\n        /* \"#utility.yul\":11715:12010   */\n    tag_140:\n        /* \"#utility.yul\":11855:11889   */\n      0x596f7520617265206e6f7420616c6c6f77656420746f2073656e6420616e7974\n        /* \"#utility.yul\":11851:11852   */\n      0x00\n        /* \"#utility.yul\":11843:11849   */\n      dup3\n        /* \"#utility.yul\":11839:11853   */\n      add\n        /* \"#utility.yul\":11832:11890   */\n      mstore\n        /* \"#utility.yul\":11924:11958   */\n      0x68696e672066726f6d207468697320736d61727420636f6e74726163742c2061\n        /* \"#utility.yul\":11919:11921   */\n      0x20\n        /* \"#utility.yul\":11911:11917   */\n      dup3\n        /* \"#utility.yul\":11907:11922   */\n      add\n        /* \"#utility.yul\":11900:11959   */\n      mstore\n        /* \"#utility.yul\":11993:12002   */\n      0x626f7274696e6700000000000000000000000000000000000000000000000000\n        /* \"#utility.yul\":11988:11990   */\n      0x40\n        /* \"#utility.yul\":11980:11986   */\n      dup3\n        /* \"#utility.yul\":11976:11991   */\n      add\n        /* \"#utility.yul\":11969:12003   */\n      mstore\n        /* \"#utility.yul\":11715:12010   */\n      pop\n      jump\t// out\n        /* \"#utility.yul\":12016:12382   */\n    tag_141:\n        /* \"#utility.yul\":12158:12161   */\n      0x00\n        /* \"#utility.yul\":12179:12246   */\n      tag_269\n        /* \"#utility.yul\":12243:12245   */\n      0x47\n        /* \"#utility.yul\":12238:12241   */\n      dup4\n        /* \"#utility.yul\":12179:12246   */\n      tag_132\n      jump\t// in\n    tag_269:\n        /* \"#utility.yul\":12172:12246   */\n      swap2\n      pop\n        /* \"#utility.yul\":12255:12348   */\n      tag_270\n        /* \"#utility.yul\":12344:12347   */\n      dup3\n        /* \"#utility.yul\":12255:12348   */\n      tag_140\n      jump\t// in\n    tag_270:\n        /* \"#utility.yul\":12373:12375   */\n      0x60\n        /* \"#utility.yul\":12368:12371   */\n      dup3\n        /* \"#utility.yul\":12364:12376   */\n      add\n        /* \"#utility.yul\":12357:12376   */\n      swap1\n      pop\n        /* \"#utility.yul\":12016:12382   */\n      swap2\n      swap1\n      pop\n      jump\t// out\n        /* \"#utility.yul\":12388:12807   */\n    tag_84:\n        /* \"#utility.yul\":12554:12558   */\n      0x00\n        /* \"#utility.yul\":12592:12594   */\n      0x20\n        /* \"#utility.yul\":12581:12590   */\n      dup3\n        /* \"#utility.yul\":12577:12595   */\n      add\n        /* \"#utility.yul\":12569:12595   */\n      swap1\n      pop\n        /* \"#utility.yul\":12641:12650   */\n      dup2\n        /* \"#utility.yul\":12635:12639   */\n      dup2\n        /* \"#utility.yul\":12631:12651   */\n      sub\n        /* \"#utility.yul\":12627:12628   */\n      0x00\n        /* \"#utility.yul\":12616:12625   */\n      dup4\n        /* \"#utility.yul\":12612:12629   */\n      add\n        /* \"#utility.yul\":12605:12652   */\n      mstore\n        /* \"#utility.yul\":12669:12800   */\n      tag_272\n        /* \"#utility.yul\":12795:12799   */\n      dup2\n        /* \"#utility.yul\":12669:12800   */\n      tag_141\n      jump\t// in\n    tag_272:\n        /* \"#utility.yul\":12661:12800   */\n      swap1\n      pop\n        /* \"#utility.yul\":12388:12807   */\n      swap2\n      swap1\n      pop\n      jump\t// out\n        /* \"#utility.yul\":12813:13061   */\n    tag_142:\n        /* \"#utility.yul\":12953:12987   */\n      0x596f752061726520747279696e6720746f2073656e64206d6f7265207468616e\n        /* \"#utility.yul\":12949:12950   */\n      0x00\n        /* \"#utility.yul\":12941:12947   */\n      dup3\n        /* \"#utility.yul\":12937:12951   */\n      add\n        /* \"#utility.yul\":12930:12988   */\n      mstore\n        /* \"#utility.yul\":13022:13053   */\n      0x20796f752061726520616c6c6f77656420746f2c2061626f7274696e67000000\n        /* \"#utility.yul\":13017:13019   */\n      0x20\n        /* \"#utility.yul\":13009:13015   */\n      dup3\n        /* \"#utility.yul\":13005:13020   */\n      add\n        /* \"#utility.yul\":12998:13054   */\n      mstore\n        /* \"#utility.yul\":12813:13061   */\n      pop\n      jump\t// out\n        /* \"#utility.yul\":13067:13433   */\n    tag_143:\n        /* \"#utility.yul\":13209:13212   */\n      0x00\n        /* \"#utility.yul\":13230:13297   */\n      tag_275\n        /* \"#utility.yul\":13294:13296   */\n      0x3d\n        /* \"#utility.yul\":13289:13292   */\n      dup4\n        /* \"#utility.yul\":13230:13297   */\n      tag_132\n      jump\t// in\n    tag_275:\n        /* \"#utility.yul\":13223:13297   */\n      swap2\n      pop\n        /* \"#utility.yul\":13306:13399   */\n      tag_276\n        /* \"#utility.yul\":13395:13398   */\n      dup3\n        /* \"#utility.yul\":13306:13399   */\n      tag_142\n      jump\t// in\n    tag_276:\n        /* \"#utility.yul\":13424:13426   */\n      0x40\n        /* \"#utility.yul\":13419:13422   */\n      dup3\n        /* \"#utility.yul\":13415:13427   */\n      add\n        /* \"#utility.yul\":13408:13427   */\n      swap1\n      pop\n        /* \"#utility.yul\":13067:13433   */\n      swap2\n      swap1\n      pop\n      jump\t// out\n        /* \"#utility.yul\":13439:13858   */\n    tag_87:\n        /* \"#utility.yul\":13605:13609   */\n      0x00\n        /* \"#utility.yul\":13643:13645   */\n      0x20\n        /* \"#utility.yul\":13632:13641   */\n      dup3\n        /* \"#utility.yul\":13628:13646   */\n      add\n        /* \"#utility.yul\":13620:13646   */\n      swap1\n      pop\n        /* \"#utility.yul\":13692:13701   */\n      dup2\n        /* \"#utility.yul\":13686:13690   */\n      dup2\n        /* \"#utility.yul\":13682:13702   */\n      sub\n        /* \"#utility.yul\":13678:13679   */\n      0x00\n        /* \"#utility.yul\":13667:13676   */\n      dup4\n        /* \"#utility.yul\":13663:13680   */\n      add\n        /* \"#utility.yul\":13656:13703   */\n      mstore\n        /* \"#utility.yul\":13720:13851   */\n      tag_278\n        /* \"#utility.yul\":13846:13850   */\n      dup2\n        /* \"#utility.yul\":13720:13851   */\n      tag_143\n      jump\t// in\n    tag_278:\n        /* \"#utility.yul\":13712:13851   */\n      swap1\n      pop\n        /* \"#utility.yul\":13439:13858   */\n      swap2\n      swap1\n      pop\n      jump\t// out\n        /* \"#utility.yul\":13864:14058   */\n    tag_89:\n        /* \"#utility.yul\":13904:13908   */\n      0x00\n        /* \"#utility.yul\":13924:13944   */\n      tag_280\n        /* \"#utility.yul\":13942:13943   */\n      dup3\n        /* \"#utility.yul\":13924:13944   */\n      tag_110\n      jump\t// in\n    tag_280:\n        /* \"#utility.yul\":13919:13944   */\n      swap2\n      pop\n        /* \"#utility.yul\":13958:13978   */\n      tag_281\n        /* \"#utility.yul\":13976:13977   */\n      dup4\n        /* \"#utility.yul\":13958:13978   */\n      tag_110\n      jump\t// in\n    tag_281:\n        /* \"#utility.yul\":13953:13978   */\n      swap3\n      pop\n        /* \"#utility.yul\":14002:14003   */\n      dup3\n        /* \"#utility.yul\":13999:14000   */\n      dup3\n        /* \"#utility.yul\":13995:14004   */\n      sub\n        /* \"#utility.yul\":13987:14004   */\n      swap1\n      pop\n        /* \"#utility.yul\":14026:14027   */\n      dup2\n        /* \"#utility.yul\":14020:14024   */\n      dup2\n        /* \"#utility.yul\":14017:14028   */\n      gt\n        /* \"#utility.yul\":14014:14051   */\n      iszero\n      tag_282\n      jumpi\n        /* \"#utility.yul\":14031:14049   */\n      tag_283\n      tag_139\n      jump\t// in\n    tag_283:\n        /* \"#utility.yul\":14014:14051   */\n    tag_282:\n        /* \"#utility.yul\":13864:14058   */\n      swap3\n      swap2\n      pop\n      pop\n      jump\t// out\n        /* \"#utility.yul\":14064:14211   */\n    tag_144:\n        /* \"#utility.yul\":14165:14176   */\n      0x00\n        /* \"#utility.yul\":14202:14205   */\n      dup2\n        /* \"#utility.yul\":14187:14205   */\n      swap1\n      pop\n        /* \"#utility.yul\":14064:14211   */\n      swap3\n      swap2\n      pop\n      pop\n      jump\t// out\n        /* \"#utility.yul\":14217:14603   */\n    tag_145:\n        /* \"#utility.yul\":14321:14324   */\n      0x00\n        /* \"#utility.yul\":14349:14387   */\n      tag_286\n        /* \"#utility.yul\":14381:14386   */\n      dup3\n        /* \"#utility.yul\":14349:14387   */\n      tag_128\n      jump\t// in\n    tag_286:\n        /* \"#utility.yul\":14403:14491   */\n      tag_287\n        /* \"#utility.yul\":14484:14490   */\n      dup2\n        /* \"#utility.yul\":14479:14482   */\n      dup6\n        /* \"#utility.yul\":14403:14491   */\n      tag_144\n      jump\t// in\n    tag_287:\n        /* \"#utility.yul\":14396:14491   */\n      swap4\n      pop\n        /* \"#utility.yul\":14500:14565   */\n      tag_288\n        /* \"#utility.yul\":14558:14564   */\n      dup2\n        /* \"#utility.yul\":14553:14556   */\n      dup6\n        /* \"#utility.yul\":14546:14550   */\n      0x20\n        /* \"#utility.yul\":14539:14544   */\n      dup7\n        /* \"#utility.yul\":14535:14551   */\n      add\n        /* \"#utility.yul\":14500:14565   */\n      tag_130\n      jump\t// in\n    tag_288:\n        /* \"#utility.yul\":14590:14596   */\n      dup1\n        /* \"#utility.yul\":14585:14588   */\n      dup5\n        /* \"#utility.yul\":14581:14597   */\n      add\n        /* \"#utility.yul\":14574:14597   */\n      swap2\n      pop\n        /* \"#utility.yul\":14325:14603   */\n      pop\n        /* \"#utility.yul\":14217:14603   */\n      swap3\n      swap2\n      pop\n      pop\n      jump\t// out\n        /* \"#utility.yul\":14609:14880   */\n    tag_91:\n        /* \"#utility.yul\":14739:14742   */\n      0x00\n        /* \"#utility.yul\":14761:14854   */\n      tag_290\n        /* \"#utility.yul\":14850:14853   */\n      dup3\n        /* \"#utility.yul\":14841:14847   */\n      dup5\n        /* \"#utility.yul\":14761:14854   */\n      tag_145\n      jump\t// in\n    tag_290:\n        /* \"#utility.yul\":14754:14854   */\n      swap2\n      pop\n        /* \"#utility.yul\":14871:14874   */\n      dup2\n        /* \"#utility.yul\":14864:14874   */\n      swap1\n      pop\n        /* \"#utility.yul\":14609:14880   */\n      swap3\n      swap2\n      pop\n      pop\n      jump\t// out\n        /* \"#utility.yul\":14886:15107   */\n    tag_146:\n        /* \"#utility.yul\":15026:15060   */\n      0x41626f7274696e672c2063616c6c20776173206e6f7420737563636573736675\n        /* \"#utility.yul\":15022:15023   */\n      0x00\n        /* \"#utility.yul\":15014:15020   */\n      dup3\n        /* \"#utility.yul\":15010:15024   */\n      add\n        /* \"#utility.yul\":15003:15061   */\n      mstore\n        /* \"#utility.yul\":15095:15099   */\n      0x6c20000000000000000000000000000000000000000000000000000000000000\n        /* \"#utility.yul\":15090:15092   */\n      0x20\n        /* \"#utility.yul\":15082:15088   */\n      dup3\n        /* \"#utility.yul\":15078:15093   */\n      add\n        /* \"#utility.yul\":15071:15100   */\n      mstore\n        /* \"#utility.yul\":14886:15107   */\n      pop\n      jump\t// out\n        /* \"#utility.yul\":15113:15479   */\n    tag_147:\n        /* \"#utility.yul\":15255:15258   */\n      0x00\n        /* \"#utility.yul\":15276:15343   */\n      tag_293\n        /* \"#utility.yul\":15340:15342   */\n      0x22\n        /* \"#utility.yul\":15335:15338   */\n      dup4\n        /* \"#utility.yul\":15276:15343   */\n      tag_132\n      jump\t// in\n    tag_293:\n        /* \"#utility.yul\":15269:15343   */\n      swap2\n      pop\n        /* \"#utility.yul\":15352:15445   */\n      tag_294\n        /* \"#utility.yul\":15441:15444   */\n      dup3\n        /* \"#utility.yul\":15352:15445   */\n      tag_146\n      jump\t// in\n    tag_294:\n        /* \"#utility.yul\":15470:15472   */\n      0x40\n        /* \"#utility.yul\":15465:15468   */\n      dup3\n        /* \"#utility.yul\":15461:15473   */\n      add\n        /* \"#utility.yul\":15454:15473   */\n      swap1\n      pop\n        /* \"#utility.yul\":15113:15479   */\n      swap2\n      swap1\n      pop\n      jump\t// out\n        /* \"#utility.yul\":15485:15904   */\n    tag_97:\n        /* \"#utility.yul\":15651:15655   */\n      0x00\n        /* \"#utility.yul\":15689:15691   */\n      0x20\n        /* \"#utility.yul\":15678:15687   */\n      dup3\n        /* \"#utility.yul\":15674:15692   */\n      add\n        /* \"#utility.yul\":15666:15692   */\n      swap1\n      pop\n        /* \"#utility.yul\":15738:15747   */\n      dup2\n        /* \"#utility.yul\":15732:15736   */\n      dup2\n        /* \"#utility.yul\":15728:15748   */\n      sub\n        /* \"#utility.yul\":15724:15725   */\n      0x00\n        /* \"#utility.yul\":15713:15722   */\n      dup4\n        /* \"#utility.yul\":15709:15726   */\n      add\n        /* \"#utility.yul\":15702:15749   */\n      mstore\n        /* \"#utility.yul\":15766:15897   */\n      tag_296\n        /* \"#utility.yul\":15892:15896   */\n      dup2\n        /* \"#utility.yul\":15766:15897   */\n      tag_147\n      jump\t// in\n    tag_296:\n        /* \"#utility.yul\":15758:15897   */\n      swap1\n      pop\n        /* \"#utility.yul\":15485:15904   */\n      swap2\n      swap1\n      pop\n      jump\t// out\n\n    auxdata: 0xa2646970667358221220b4a901f8e9825f747ce5814c958407bbed74f5a49144e7a8e0b577db74325c8064736f6c634300081e0033\n}\n",
				"bytecode": {
					"linkReferences": {},
					"object": "6080604052348015600e575f5ffd5b50335f5f6101000a81548173ffffffffffffffffffffffffffffffffffffffff021916908373ffffffffffffffffffffffffffffffffffffffff1602179055506112da8061005b5f395ff3fe608060405260043610610089575f3560e01c806383012be11161005857806383012be1146101705780638da5cb5b1461019a578063b1f8100d146101c4578063be45fd62146101ec578063dac1b3031461022857610090565b80630633b14a146100945780630bc605ad146100d0578063310ec4a71461010c5780633e5beab91461013457610090565b3661009057005b5f5ffd5b34801561009f575f5ffd5b506100ba60048036038101906100b59190610ac2565b610250565b6040516100c79190610b07565b60405180910390f35b3480156100db575f5ffd5b506100f660048036038101906100f19190610ac2565b61026d565b6040516101039190610b07565b60405180910390f35b348015610117575f5ffd5b50610132600480360381019061012d9190610b53565b61028a565b005b34801561013f575f5ffd5b5061015a60048036038101906101559190610ac2565b610415565b6040516101679190610ba0565b60405180910390f35b34801561017b575f5ffd5b5061018461042a565b6040516101919190610ba0565b60405180910390f35b3480156101a5575f5ffd5b506101ae61042f565b6040516101bb9190610bd9565b60405180910390f35b3480156101cf575f5ffd5b506101ea60048036038101906101e59190610c1c565b610453565b005b3480156101f7575f5ffd5b50610212600480360381019061020d9190610d83565b610707565b60405161021f9190610e4f565b60405180910390f35b348015610233575f5ffd5b5061024e60048036038101906102499190610ac2565b610971565b005b6003602052805f5260405f205f915054906101000a900460ff1681565b6002602052805f5260405f205f915054906101000a900460ff1681565b5f5f9054906101000a900473ffffffffffffffffffffffffffffffffffffffff1673ffffffffffffffffffffffffffffffffffffffff163373ffffffffffffffffffffffffffffffffffffffff1614610318576040517f08c379a000000000000000000000000000000000000000000000000000000000815260040161030f90610ec9565b60405180910390fd5b8060015f3373ffffffffffffffffffffffffffffffffffffffff1673ffffffffffffffffffffffffffffffffffffffff1681526020019081526020015f20819055505f8111156103bc57600160025f8473ffffffffffffffffffffffffffffffffffffffff1673ffffffffffffffffffffffffffffffffffffffff1681526020019081526020015f205f6101000a81548160ff021916908315150217905550610411565b5f60025f8473ffffffffffffffffffffffffffffffffffffffff1673ffffffffffffffffffffffffffffffffffffffff1681526020019081526020015f205f6101000a81548160ff0219169083151502179055505b5050565b6001602052805f5260405f205f915090505481565b600381565b5f5f9054906101000a900473ffffffffffffffffffffffffffffffffffffffff1681565b60035f3373ffffffffffffffffffffffffffffffffffffffff1673ffffffffffffffffffffffffffffffffffffffff1681526020019081526020015f205f9054906101000a900460ff166104dc576040517f08c379a00000000000000000000000000000000000000000000000000000000081526004016104d390610f57565b60405180910390fd5b5f151560045f8373ffffffffffffffffffffffffffffffffffffffff1673ffffffffffffffffffffffffffffffffffffffff1681526020019081526020015f205f3373ffffffffffffffffffffffffffffffffffffffff1673ffffffffffffffffffffffffffffffffffffffff1681526020019081526020015f205f9054906101000a900460ff161515146105a6576040517f08c379a000000000000000000000000000000000000000000000000000000000815260040161059d90610fbf565b60405180910390fd5b60055f9054906101000a900473ffffffffffffffffffffffffffffffffffffffff1673ffffffffffffffffffffffffffffffffffffffff168173ffffffffffffffffffffffffffffffffffffffff1614610642578060055f6101000a81548173ffffffffffffffffffffffffffffffffffffffff021916908373ffffffffffffffffffffffffffffffffffffffff1602179055505f6006819055505b60065f8154809291906106549061100a565b91905055506003600654106107045760055f9054906101000a900473ffffffffffffffffffffffffffffffffffffffff165f5f6101000a81548173ffffffffffffffffffffffffffffffffffffffff021916908373ffffffffffffffffffffffffffffffffffffffff1602179055505f60055f6101000a81548173ffffffffffffffffffffffffffffffffffffffff021916908373ffffffffffffffffffffffffffffffffffffffff1602179055505b50565b60605f5f9054906101000a900473ffffffffffffffffffffffffffffffffffffffff1673ffffffffffffffffffffffffffffffffffffffff163373ffffffffffffffffffffffffffffffffffffffff16146108b95760025f3373ffffffffffffffffffffffffffffffffffffffff1673ffffffffffffffffffffffffffffffffffffffff1681526020019081526020015f205f9054906101000a900460ff166107e5576040517f08c379a00000000000000000000000000000000000000000000000000000000081526004016107dc906110e7565b60405180910390fd5b8260015f3373ffffffffffffffffffffffffffffffffffffffff1673ffffffffffffffffffffffffffffffffffffffff1681526020019081526020015f20541015610865576040517f08c379a000000000000000000000000000000000000000000000000000000000815260040161085c90611175565b60405180910390fd5b8260015f3373ffffffffffffffffffffffffffffffffffffffff1673ffffffffffffffffffffffffffffffffffffffff1681526020019081526020015f205f8282546108b19190611193565b925050819055505b5f5f8573ffffffffffffffffffffffffffffffffffffffff1685856040516108e19190611200565b5f6040518083038185875af1925050503d805f811461091b576040519150601f19603f3d011682016040523d82523d5f602084013e610920565b606091505b509150915081610965576040517f08c379a000000000000000000000000000000000000000000000000000000000815260040161095c90611286565b60405180910390fd5b80925050509392505050565b5f5f9054906101000a900473ffffffffffffffffffffffffffffffffffffffff1673ffffffffffffffffffffffffffffffffffffffff163373ffffffffffffffffffffffffffffffffffffffff16146109ff576040517f08c379a00000000000000000000000000000000000000000000000000000000081526004016109f690610ec9565b60405180910390fd5b600160035f8373ffffffffffffffffffffffffffffffffffffffff1673ffffffffffffffffffffffffffffffffffffffff1681526020019081526020015f205f6101000a81548160ff02191690831515021790555050565b5f604051905090565b5f5ffd5b5f5ffd5b5f73ffffffffffffffffffffffffffffffffffffffff82169050919050565b5f610a9182610a68565b9050919050565b610aa181610a87565b8114610aab575f5ffd5b50565b5f81359050610abc81610a98565b92915050565b5f60208284031215610ad757610ad6610a60565b5b5f610ae484828501610aae565b91505092915050565b5f8115159050919050565b610b0181610aed565b82525050565b5f602082019050610b1a5f830184610af8565b92915050565b5f819050919050565b610b3281610b20565b8114610b3c575f5ffd5b50565b5f81359050610b4d81610b29565b92915050565b5f5f60408385031215610b6957610b68610a60565b5b5f610b7685828601610aae565b9250506020610b8785828601610b3f565b9150509250929050565b610b9a81610b20565b82525050565b5f602082019050610bb35f830184610b91565b92915050565b5f610bc382610a68565b9050919050565b610bd381610bb9565b82525050565b5f602082019050610bec5f830184610bca565b92915050565b610bfb81610bb9565b8114610c05575f5ffd5b50565b5f81359050610c1681610bf2565b92915050565b5f60208284031215610c3157610c30610a60565b5b5f610c3e84828501610c08565b91505092915050565b5f5ffd5b5f5ffd5b5f601f19601f8301169050919050565b7f4e487b71000000000000000000000000000000000000000000000000000000005f52604160045260245ffd5b610c9582610c4f565b810181811067ffffffffffffffff82111715610cb457610cb3610c5f565b5b80604052505050565b5f610cc6610a57565b9050610cd28282610c8c565b919050565b5f67ffffffffffffffff821115610cf157610cf0610c5f565b5b610cfa82610c4f565b9050602081019050919050565b828183375f83830152505050565b5f610d27610d2284610cd7565b610cbd565b905082815260208101848484011115610d4357610d42610c4b565b5b610d4e848285610d07565b509392505050565b5f82601f830112610d6a57610d69610c47565b5b8135610d7a848260208601610d15565b91505092915050565b5f5f5f60608486031215610d9a57610d99610a60565b5b5f610da786828701610c08565b9350506020610db886828701610b3f565b925050604084013567ffffffffffffffff811115610dd957610dd8610a64565b5b610de586828701610d56565b9150509250925092565b5f81519050919050565b5f82825260208201905092915050565b8281835e5f83830152505050565b5f610e2182610def565b610e2b8185610df9565b9350610e3b818560208601610e09565b610e4481610c4f565b840191505092915050565b5f6020820190508181035f830152610e678184610e17565b905092915050565b5f82825260208201905092915050565b7f596f7520617265206e6f7420746865206f776e65722c2061626f7274696e67005f82015250565b5f610eb3601f83610e6f565b9150610ebe82610e7f565b602082019050919050565b5f6020820190508181035f830152610ee081610ea7565b9050919050565b7f596f7520617265206e6f7420677561726469616e206f6620746869732077616c5f8201527f6c65742c2061626f7274696e6700000000000000000000000000000000000000602082015250565b5f610f41602d83610e6f565b9150610f4c82610ee7565b604082019050919050565b5f6020820190508181035f830152610f6e81610f35565b9050919050565b7f596f7520616c726561647920766f7465642c2061626f7274696e6700000000005f82015250565b5f610fa9601b83610e6f565b9150610fb482610f75565b602082019050919050565b5f6020820190508181035f830152610fd681610f9d565b9050919050565b7f4e487b71000000000000000000000000000000000000000000000000000000005f52601160045260245ffd5b5f61101482610b20565b91507fffffffffffffffffffffffffffffffffffffffffffffffffffffffffffffffff820361104657611045610fdd565b5b600182019050919050565b7f596f7520617265206e6f7420616c6c6f77656420746f2073656e6420616e79745f8201527f68696e672066726f6d207468697320736d61727420636f6e74726163742c206160208201527f626f7274696e6700000000000000000000000000000000000000000000000000604082015250565b5f6110d1604783610e6f565b91506110dc82611051565b606082019050919050565b5f6020820190508181035f8301526110fe816110c5565b9050919050565b7f596f752061726520747279696e6720746f2073656e64206d6f7265207468616e5f8201527f20796f752061726520616c6c6f77656420746f2c2061626f7274696e67000000602082015250565b5f61115f603d83610e6f565b915061116a82611105565b604082019050919050565b5f6020820190508181035f83015261118c81611153565b9050919050565b5f61119d82610b20565b91506111a883610b20565b92508282039050818111156111c0576111bf610fdd565b5b92915050565b5f81905092915050565b5f6111da82610def565b6111e481856111c6565b93506111f4818560208601610e09565b80840191505092915050565b5f61120b82846111d0565b915081905092915050565b7f41626f7274696e672c2063616c6c20776173206e6f74207375636365737366755f8201527f6c20000000000000000000000000000000000000000000000000000000000000602082015250565b5f611270602283610e6f565b915061127b82611216565b604082019050919050565b5f6020820190508181035f83015261129d81611264565b905091905056fea2646970667358221220b4a901f8e9825f747ce5814c958407bbed74f5a49144e7a8e0b577db74325c8064736f6c634300081e0033",
					"opcodes": "PUSH1 0x80 PUSH1 0x40 MSTORE CALLVALUE DUP1 ISZERO PUSH1 0xE JUMPI PUSH0 PUSH0 REVERT JUMPDEST POP CALLER PUSH0 PUSH0 PUSH2 0x100 EXP DUP2 SLOAD DUP2 PUSH20 0xFFFFFFFFFFFFFFFFFFFFFFFFFFFFFFFFFFFFFFFF MUL NOT AND SWAP1 DUP4 PUSH20 0xFFFFFFFFFFFFFFFFFFFFFFFFFFFFFFFFFFFFFFFF AND MUL OR SWAP1 SSTORE POP PUSH2 0x12DA DUP1 PUSH2 0x5B PUSH0 CODECOPY PUSH0 RETURN INVALID PUSH1 0x80 PUSH1 0x40 MSTORE PUSH1 0x4 CALLDATASIZE LT PUSH2 0x89 JUMPI PUSH0 CALLDATALOAD PUSH1 0xE0 SHR DUP1 PUSH4 0x83012BE1 GT PUSH2 0x58 JUMPI DUP1 PUSH4 0x83012BE1 EQ PUSH2 0x170 JUMPI DUP1 PUSH4 0x8DA5CB5B EQ PUSH2 0x19A JUMPI DUP1 PUSH4 0xB1F8100D EQ PUSH2 0x1C4 JUMPI DUP1 PUSH4 0xBE45FD62 EQ PUSH2 0x1EC JUMPI DUP1 PUSH4 0xDAC1B303 EQ PUSH2 0x228 JUMPI PUSH2 0x90 JUMP JUMPDEST DUP1 PUSH4 0x633B14A EQ PUSH2 0x94 JUMPI DUP1 PUSH4 0xBC605AD EQ PUSH2 0xD0 JUMPI DUP1 PUSH4 0x310EC4A7 EQ PUSH2 0x10C JUMPI DUP1 PUSH4 0x3E5BEAB9 EQ PUSH2 0x134 JUMPI PUSH2 0x90 JUMP JUMPDEST CALLDATASIZE PUSH2 0x90 JUMPI STOP JUMPDEST PUSH0 PUSH0 REVERT JUMPDEST CALLVALUE DUP1 ISZERO PUSH2 0x9F JUMPI PUSH0 PUSH0 REVERT JUMPDEST POP PUSH2 0xBA PUSH1 0x4 DUP1 CALLDATASIZE SUB DUP2 ADD SWAP1 PUSH2 0xB5 SWAP2 SWAP1 PUSH2 0xAC2 JUMP JUMPDEST PUSH2 0x250 JUMP JUMPDEST PUSH1 0x40 MLOAD PUSH2 0xC7 SWAP2 SWAP1 PUSH2 0xB07 JUMP JUMPDEST PUSH1 0x40 MLOAD DUP1 SWAP2 SUB SWAP1 RETURN JUMPDEST CALLVALUE DUP1 ISZERO PUSH2 0xDB JUMPI PUSH0 PUSH0 REVERT JUMPDEST POP PUSH2 0xF6 PUSH1 0x4 DUP1 CALLDATASIZE SUB DUP2 ADD SWAP1 PUSH2 0xF1 SWAP2 SWAP1 PUSH2 0xAC2 JUMP JUMPDEST PUSH2 0x26D JUMP JUMPDEST PUSH1 0x40 MLOAD PUSH2 0x103 SWAP2 SWAP1 PUSH2 0xB07 JUMP JUMPDEST PUSH1 0x40 MLOAD DUP1 SWAP2 SUB SWAP1 RETURN JUMPDEST CALLVALUE DUP1 ISZERO PUSH2 0x117 JUMPI PUSH0 PUSH0 REVERT JUMPDEST POP PUSH2 0x132 PUSH1 0x4 DUP1 CALLDATASIZE SUB DUP2 ADD SWAP1 PUSH2 0x12D SWAP2 SWAP1 PUSH2 0xB53 JUMP JUMPDEST PUSH2 0x28A JUMP JUMPDEST STOP JUMPDEST CALLVALUE DUP1 ISZERO PUSH2 0x13F JUMPI PUSH0 PUSH0 REVERT JUMPDEST POP PUSH2 0x15A PUSH1 0x4 DUP1 CALLDATASIZE SUB DUP2 ADD SWAP1 PUSH2 0x155 SWAP2 SWAP1 PUSH2 0xAC2 JUMP JUMPDEST PUSH2 0x415 JUMP JUMPDEST PUSH1 0x40 MLOAD PUSH2 0x167 SWAP2 SWAP1 PUSH2 0xBA0 JUMP JUMPDEST PUSH1 0x40 MLOAD DUP1 SWAP2 SUB SWAP1 RETURN JUMPDEST CALLVALUE DUP1 ISZERO PUSH2 0x17B JUMPI PUSH0 PUSH0 REVERT JUMPDEST POP PUSH2 0x184 PUSH2 0x42A JUMP JUMPDEST PUSH1 0x40 MLOAD PUSH2 0x191 SWAP2 SWAP1 PUSH2 0xBA0 JUMP JUMPDEST PUSH1 0x40 MLOAD DUP1 SWAP2 SUB SWAP1 RETURN JUMPDEST CALLVALUE DUP1 ISZERO PUSH2 0x1A5 JUMPI PUSH0 PUSH0 REVERT JUMPDEST POP PUSH2 0x1AE PUSH2 0x42F JUMP JUMPDEST PUSH1 0x40 MLOAD PUSH2 0x1BB SWAP2 SWAP1 PUSH2 0xBD9 JUMP JUMPDEST PUSH1 0x40 MLOAD DUP1 SWAP2 SUB SWAP1 RETURN JUMPDEST CALLVALUE DUP1 ISZERO PUSH2 0x1CF JUMPI PUSH0 PUSH0 REVERT JUMPDEST POP PUSH2 0x1EA PUSH1 0x4 DUP1 CALLDATASIZE SUB DUP2 ADD SWAP1 PUSH2 0x1E5 SWAP2 SWAP1 PUSH2 0xC1C JUMP JUMPDEST PUSH2 0x453 JUMP JUMPDEST STOP JUMPDEST CALLVALUE DUP1 ISZERO PUSH2 0x1F7 JUMPI PUSH0 PUSH0 REVERT JUMPDEST POP PUSH2 0x212 PUSH1 0x4 DUP1 CALLDATASIZE SUB DUP2 ADD SWAP1 PUSH2 0x20D SWAP2 SWAP1 PUSH2 0xD83 JUMP JUMPDEST PUSH2 0x707 JUMP JUMPDEST PUSH1 0x40 MLOAD PUSH2 0x21F SWAP2 SWAP1 PUSH2 0xE4F JUMP JUMPDEST PUSH1 0x40 MLOAD DUP1 SWAP2 SUB SWAP1 RETURN JUMPDEST CALLVALUE DUP1 ISZERO PUSH2 0x233 JUMPI PUSH0 PUSH0 REVERT JUMPDEST POP PUSH2 0x24E PUSH1 0x4 DUP1 CALLDATASIZE SUB DUP2 ADD SWAP1 PUSH2 0x249 SWAP2 SWAP1 PUSH2 0xAC2 JUMP JUMPDEST PUSH2 0x971 JUMP JUMPDEST STOP JUMPDEST PUSH1 0x3 PUSH1 0x20 MSTORE DUP1 PUSH0 MSTORE PUSH1 0x40 PUSH0 KECCAK256 PUSH0 SWAP2 POP SLOAD SWAP1 PUSH2 0x100 EXP SWAP1 DIV PUSH1 0xFF AND DUP2 JUMP JUMPDEST PUSH1 0x2 PUSH1 0x20 MSTORE DUP1 PUSH0 MSTORE PUSH1 0x40 PUSH0 KECCAK256 PUSH0 SWAP2 POP SLOAD SWAP1 PUSH2 0x100 EXP SWAP1 DIV PUSH1 0xFF AND DUP2 JUMP JUMPDEST PUSH0 PUSH0 SWAP1 SLOAD SWAP1 PUSH2 0x100 EXP SWAP1 DIV PUSH20 0xFFFFFFFFFFFFFFFFFFFFFFFFFFFFFFFFFFFFFFFF AND PUSH20 0xFFFFFFFFFFFFFFFFFFFFFFFFFFFFFFFFFFFFFFFF AND CALLER PUSH20 0xFFFFFFFFFFFFFFFFFFFFFFFFFFFFFFFFFFFFFFFF AND EQ PUSH2 0x318 JUMPI PUSH1 0x40 MLOAD PUSH32 0x8C379A000000000000000000000000000000000000000000000000000000000 DUP2 MSTORE PUSH1 0x4 ADD PUSH2 0x30F SWAP1 PUSH2 0xEC9 JUMP JUMPDEST PUSH1 0x40 MLOAD DUP1 SWAP2 SUB SWAP1 REVERT JUMPDEST DUP1 PUSH1 0x1 PUSH0 CALLER PUSH20 0xFFFFFFFFFFFFFFFFFFFFFFFFFFFFFFFFFFFFFFFF AND PUSH20 0xFFFFFFFFFFFFFFFFFFFFFFFFFFFFFFFFFFFFFFFF AND DUP2 MSTORE PUSH1 0x20 ADD SWAP1 DUP2 MSTORE PUSH1 0x20 ADD PUSH0 KECCAK256 DUP2 SWAP1 SSTORE POP PUSH0 DUP2 GT ISZERO PUSH2 0x3BC JUMPI PUSH1 0x1 PUSH1 0x2 PUSH0 DUP5 PUSH20 0xFFFFFFFFFFFFFFFFFFFFFFFFFFFFFFFFFFFFFFFF AND PUSH20 0xFFFFFFFFFFFFFFFFFFFFFFFFFFFFFFFFFFFFFFFF AND DUP2 MSTORE PUSH1 0x20 ADD SWAP1 DUP2 MSTORE PUSH1 0x20 ADD PUSH0 KECCAK256 PUSH0 PUSH2 0x100 EXP DUP2 SLOAD DUP2 PUSH1 0xFF MUL NOT AND SWAP1 DUP4 ISZERO ISZERO MUL OR SWAP1 SSTORE POP PUSH2 0x411 JUMP JUMPDEST PUSH0 PUSH1 0x2 PUSH0 DUP5 PUSH20 0xFFFFFFFFFFFFFFFFFFFFFFFFFFFFFFFFFFFFFFFF AND PUSH20 0xFFFFFFFFFFFFFFFFFFFFFFFFFFFFFFFFFFFFFFFF AND DUP2 MSTORE PUSH1 0x20 ADD SWAP1 DUP2 MSTORE PUSH1 0x20 ADD PUSH0 KECCAK256 PUSH0 PUSH2 0x100 EXP DUP2 SLOAD DUP2 PUSH1 0xFF MUL NOT AND SWAP1 DUP4 ISZERO ISZERO MUL OR SWAP1 SSTORE POP JUMPDEST POP POP JUMP JUMPDEST PUSH1 0x1 PUSH1 0x20 MSTORE DUP1 PUSH0 MSTORE PUSH1 0x40 PUSH0 KECCAK256 PUSH0 SWAP2 POP SWAP1 POP SLOAD DUP2 JUMP JUMPDEST PUSH1 0x3 DUP2 JUMP JUMPDEST PUSH0 PUSH0 SWAP1 SLOAD SWAP1 PUSH2 0x100 EXP SWAP1 DIV PUSH20 0xFFFFFFFFFFFFFFFFFFFFFFFFFFFFFFFFFFFFFFFF AND DUP2 JUMP JUMPDEST PUSH1 0x3 PUSH0 CALLER PUSH20 0xFFFFFFFFFFFFFFFFFFFFFFFFFFFFFFFFFFFFFFFF AND PUSH20 0xFFFFFFFFFFFFFFFFFFFFFFFFFFFFFFFFFFFFFFFF AND DUP2 MSTORE PUSH1 0x20 ADD SWAP1 DUP2 MSTORE PUSH1 0x20 ADD PUSH0 KECCAK256 PUSH0 SWAP1 SLOAD SWAP1 PUSH2 0x100 EXP SWAP1 DIV PUSH1 0xFF AND PUSH2 0x4DC JUMPI PUSH1 0x40 MLOAD PUSH32 0x8C379A000000000000000000000000000000000000000000000000000000000 DUP2 MSTORE PUSH1 0x4 ADD PUSH2 0x4D3 SWAP1 PUSH2 0xF57 JUMP JUMPDEST PUSH1 0x40 MLOAD DUP1 SWAP2 SUB SWAP1 REVERT JUMPDEST PUSH0 ISZERO ISZERO PUSH1 0x4 PUSH0 DUP4 PUSH20 0xFFFFFFFFFFFFFFFFFFFFFFFFFFFFFFFFFFFFFFFF AND PUSH20 0xFFFFFFFFFFFFFFFFFFFFFFFFFFFFFFFFFFFFFFFF AND DUP2 MSTORE PUSH1 0x20 ADD SWAP1 DUP2 MSTORE PUSH1 0x20 ADD PUSH0 KECCAK256 PUSH0 CALLER PUSH20 0xFFFFFFFFFFFFFFFFFFFFFFFFFFFFFFFFFFFFFFFF AND PUSH20 0xFFFFFFFFFFFFFFFFFFFFFFFFFFFFFFFFFFFFFFFF AND DUP2 MSTORE PUSH1 0x20 ADD SWAP1 DUP2 MSTORE PUSH1 0x20 ADD PUSH0 KECCAK256 PUSH0 SWAP1 SLOAD SWAP1 PUSH2 0x100 EXP SWAP1 DIV PUSH1 0xFF AND ISZERO ISZERO EQ PUSH2 0x5A6 JUMPI PUSH1 0x40 MLOAD PUSH32 0x8C379A000000000000000000000000000000000000000000000000000000000 DUP2 MSTORE PUSH1 0x4 ADD PUSH2 0x59D SWAP1 PUSH2 0xFBF JUMP JUMPDEST PUSH1 0x40 MLOAD DUP1 SWAP2 SUB SWAP1 REVERT JUMPDEST PUSH1 0x5 PUSH0 SWAP1 SLOAD SWAP1 PUSH2 0x100 EXP SWAP1 DIV PUSH20 0xFFFFFFFFFFFFFFFFFFFFFFFFFFFFFFFFFFFFFFFF AND PUSH20 0xFFFFFFFFFFFFFFFFFFFFFFFFFFFFFFFFFFFFFFFF AND DUP2 PUSH20 0xFFFFFFFFFFFFFFFFFFFFFFFFFFFFFFFFFFFFFFFF AND EQ PUSH2 0x642 JUMPI DUP1 PUSH1 0x5 PUSH0 PUSH2 0x100 EXP DUP2 SLOAD DUP2 PUSH20 0xFFFFFFFFFFFFFFFFFFFFFFFFFFFFFFFFFFFFFFFF MUL NOT AND SWAP1 DUP4 PUSH20 0xFFFFFFFFFFFFFFFFFFFFFFFFFFFFFFFFFFFFFFFF AND MUL OR SWAP1 SSTORE POP PUSH0 PUSH1 0x6 DUP2 SWAP1 SSTORE POP JUMPDEST PUSH1 0x6 PUSH0 DUP2 SLOAD DUP1 SWAP3 SWAP2 SWAP1 PUSH2 0x654 SWAP1 PUSH2 0x100A JUMP JUMPDEST SWAP2 SWAP1 POP SSTORE POP PUSH1 0x3 PUSH1 0x6 SLOAD LT PUSH2 0x704 JUMPI PUSH1 0x5 PUSH0 SWAP1 SLOAD SWAP1 PUSH2 0x100 EXP SWAP1 DIV PUSH20 0xFFFFFFFFFFFFFFFFFFFFFFFFFFFFFFFFFFFFFFFF AND PUSH0 PUSH0 PUSH2 0x100 EXP DUP2 SLOAD DUP2 PUSH20 0xFFFFFFFFFFFFFFFFFFFFFFFFFFFFFFFFFFFFFFFF MUL NOT AND SWAP1 DUP4 PUSH20 0xFFFFFFFFFFFFFFFFFFFFFFFFFFFFFFFFFFFFFFFF AND MUL OR SWAP1 SSTORE POP PUSH0 PUSH1 0x5 PUSH0 PUSH2 0x100 EXP DUP2 SLOAD DUP2 PUSH20 0xFFFFFFFFFFFFFFFFFFFFFFFFFFFFFFFFFFFFFFFF MUL NOT AND SWAP1 DUP4 PUSH20 0xFFFFFFFFFFFFFFFFFFFFFFFFFFFFFFFFFFFFFFFF AND MUL OR SWAP1 SSTORE POP JUMPDEST POP JUMP JUMPDEST PUSH1 0x60 PUSH0 PUSH0 SWAP1 SLOAD SWAP1 PUSH2 0x100 EXP SWAP1 DIV PUSH20 0xFFFFFFFFFFFFFFFFFFFFFFFFFFFFFFFFFFFFFFFF AND PUSH20 0xFFFFFFFFFFFFFFFFFFFFFFFFFFFFFFFFFFFFFFFF AND CALLER PUSH20 0xFFFFFFFFFFFFFFFFFFFFFFFFFFFFFFFFFFFFFFFF AND EQ PUSH2 0x8B9 JUMPI PUSH1 0x2 PUSH0 CALLER PUSH20 0xFFFFFFFFFFFFFFFFFFFFFFFFFFFFFFFFFFFFFFFF AND PUSH20 0xFFFFFFFFFFFFFFFFFFFFFFFFFFFFFFFFFFFFFFFF AND DUP2 MSTORE PUSH1 0x20 ADD SWAP1 DUP2 MSTORE PUSH1 0x20 ADD PUSH0 KECCAK256 PUSH0 SWAP1 SLOAD SWAP1 PUSH2 0x100 EXP SWAP1 DIV PUSH1 0xFF AND PUSH2 0x7E5 JUMPI PUSH1 0x40 MLOAD PUSH32 0x8C379A000000000000000000000000000000000000000000000000000000000 DUP2 MSTORE PUSH1 0x4 ADD PUSH2 0x7DC SWAP1 PUSH2 0x10E7 JUMP JUMPDEST PUSH1 0x40 MLOAD DUP1 SWAP2 SUB SWAP1 REVERT JUMPDEST DUP3 PUSH1 0x1 PUSH0 CALLER PUSH20 0xFFFFFFFFFFFFFFFFFFFFFFFFFFFFFFFFFFFFFFFF AND PUSH20 0xFFFFFFFFFFFFFFFFFFFFFFFFFFFFFFFFFFFFFFFF AND DUP2 MSTORE PUSH1 0x20 ADD SWAP1 DUP2 MSTORE PUSH1 0x20 ADD PUSH0 KECCAK256 SLOAD LT ISZERO PUSH2 0x865 JUMPI PUSH1 0x40 MLOAD PUSH32 0x8C379A000000000000000000000000000000000000000000000000000000000 DUP2 MSTORE PUSH1 0x4 ADD PUSH2 0x85C SWAP1 PUSH2 0x1175 JUMP JUMPDEST PUSH1 0x40 MLOAD DUP1 SWAP2 SUB SWAP1 REVERT JUMPDEST DUP3 PUSH1 0x1 PUSH0 CALLER PUSH20 0xFFFFFFFFFFFFFFFFFFFFFFFFFFFFFFFFFFFFFFFF AND PUSH20 0xFFFFFFFFFFFFFFFFFFFFFFFFFFFFFFFFFFFFFFFF AND DUP2 MSTORE PUSH1 0x20 ADD SWAP1 DUP2 MSTORE PUSH1 0x20 ADD PUSH0 KECCAK256 PUSH0 DUP3 DUP3 SLOAD PUSH2 0x8B1 SWAP2 SWAP1 PUSH2 0x1193 JUMP JUMPDEST SWAP3 POP POP DUP2 SWAP1 SSTORE POP JUMPDEST PUSH0 PUSH0 DUP6 PUSH20 0xFFFFFFFFFFFFFFFFFFFFFFFFFFFFFFFFFFFFFFFF AND DUP6 DUP6 PUSH1 0x40 MLOAD PUSH2 0x8E1 SWAP2 SWAP1 PUSH2 0x1200 JUMP JUMPDEST PUSH0 PUSH1 0x40 MLOAD DUP1 DUP4 SUB DUP2 DUP6 DUP8 GAS CALL SWAP3 POP POP POP RETURNDATASIZE DUP1 PUSH0 DUP2 EQ PUSH2 0x91B JUMPI PUSH1 0x40 MLOAD SWAP2 POP PUSH1 0x1F NOT PUSH1 0x3F RETURNDATASIZE ADD AND DUP3 ADD PUSH1 0x40 MSTORE RETURNDATASIZE DUP3 MSTORE RETURNDATASIZE PUSH0 PUSH1 0x20 DUP5 ADD RETURNDATACOPY PUSH2 0x920 JUMP JUMPDEST PUSH1 0x60 SWAP2 POP JUMPDEST POP SWAP2 POP SWAP2 POP DUP2 PUSH2 0x965 JUMPI PUSH1 0x40 MLOAD PUSH32 0x8C379A000000000000000000000000000000000000000000000000000000000 DUP2 MSTORE PUSH1 0x4 ADD PUSH2 0x95C SWAP1 PUSH2 0x1286 JUMP JUMPDEST PUSH1 0x40 MLOAD DUP1 SWAP2 SUB SWAP1 REVERT JUMPDEST DUP1 SWAP3 POP POP POP SWAP4 SWAP3 POP POP POP JUMP JUMPDEST PUSH0 PUSH0 SWAP1 SLOAD SWAP1 PUSH2 0x100 EXP SWAP1 DIV PUSH20 0xFFFFFFFFFFFFFFFFFFFFFFFFFFFFFFFFFFFFFFFF AND PUSH20 0xFFFFFFFFFFFFFFFFFFFFFFFFFFFFFFFFFFFFFFFF AND CALLER PUSH20 0xFFFFFFFFFFFFFFFFFFFFFFFFFFFFFFFFFFFFFFFF AND EQ PUSH2 0x9FF JUMPI PUSH1 0x40 MLOAD PUSH32 0x8C379A000000000000000000000000000000000000000000000000000000000 DUP2 MSTORE PUSH1 0x4 ADD PUSH2 0x9F6 SWAP1 PUSH2 0xEC9 JUMP JUMPDEST PUSH1 0x40 MLOAD DUP1 SWAP2 SUB SWAP1 REVERT JUMPDEST PUSH1 0x1 PUSH1 0x3 PUSH0 DUP4 PUSH20 0xFFFFFFFFFFFFFFFFFFFFFFFFFFFFFFFFFFFFFFFF AND PUSH20 0xFFFFFFFFFFFFFFFFFFFFFFFFFFFFFFFFFFFFFFFF AND DUP2 MSTORE PUSH1 0x20 ADD SWAP1 DUP2 MSTORE PUSH1 0x20 ADD PUSH0 KECCAK256 PUSH0 PUSH2 0x100 EXP DUP2 SLOAD DUP2 PUSH1 0xFF MUL NOT AND SWAP1 DUP4 ISZERO ISZERO MUL OR SWAP1 SSTORE POP POP JUMP JUMPDEST PUSH0 PUSH1 0x40 MLOAD SWAP1 POP SWAP1 JUMP JUMPDEST PUSH0 PUSH0 REVERT JUMPDEST PUSH0 PUSH0 REVERT JUMPDEST PUSH0 PUSH20 0xFFFFFFFFFFFFFFFFFFFFFFFFFFFFFFFFFFFFFFFF DUP3 AND SWAP1 POP SWAP2 SWAP1 POP JUMP JUMPDEST PUSH0 PUSH2 0xA91 DUP3 PUSH2 0xA68 JUMP JUMPDEST SWAP1 POP SWAP2 SWAP1 POP JUMP JUMPDEST PUSH2 0xAA1 DUP2 PUSH2 0xA87 JUMP JUMPDEST DUP2 EQ PUSH2 0xAAB JUMPI PUSH0 PUSH0 REVERT JUMPDEST POP JUMP JUMPDEST PUSH0 DUP2 CALLDATALOAD SWAP1 POP PUSH2 0xABC DUP2 PUSH2 0xA98 JUMP JUMPDEST SWAP3 SWAP2 POP POP JUMP JUMPDEST PUSH0 PUSH1 0x20 DUP3 DUP5 SUB SLT ISZERO PUSH2 0xAD7 JUMPI PUSH2 0xAD6 PUSH2 0xA60 JUMP JUMPDEST JUMPDEST PUSH0 PUSH2 0xAE4 DUP5 DUP3 DUP6 ADD PUSH2 0xAAE JUMP JUMPDEST SWAP2 POP POP SWAP3 SWAP2 POP POP JUMP JUMPDEST PUSH0 DUP2 ISZERO ISZERO SWAP1 POP SWAP2 SWAP1 POP JUMP JUMPDEST PUSH2 0xB01 DUP2 PUSH2 0xAED JUMP JUMPDEST DUP3 MSTORE POP POP JUMP JUMPDEST PUSH0 PUSH1 0x20 DUP3 ADD SWAP1 POP PUSH2 0xB1A PUSH0 DUP4 ADD DUP5 PUSH2 0xAF8 JUMP JUMPDEST SWAP3 SWAP2 POP POP JUMP JUMPDEST PUSH0 DUP2 SWAP1 POP SWAP2 SWAP1 POP JUMP JUMPDEST PUSH2 0xB32 DUP2 PUSH2 0xB20 JUMP JUMPDEST DUP2 EQ PUSH2 0xB3C JUMPI PUSH0 PUSH0 REVERT JUMPDEST POP JUMP JUMPDEST PUSH0 DUP2 CALLDATALOAD SWAP1 POP PUSH2 0xB4D DUP2 PUSH2 0xB29 JUMP JUMPDEST SWAP3 SWAP2 POP POP JUMP JUMPDEST PUSH0 PUSH0 PUSH1 0x40 DUP4 DUP6 SUB SLT ISZERO PUSH2 0xB69 JUMPI PUSH2 0xB68 PUSH2 0xA60 JUMP JUMPDEST JUMPDEST PUSH0 PUSH2 0xB76 DUP6 DUP3 DUP7 ADD PUSH2 0xAAE JUMP JUMPDEST SWAP3 POP POP PUSH1 0x20 PUSH2 0xB87 DUP6 DUP3 DUP7 ADD PUSH2 0xB3F JUMP JUMPDEST SWAP2 POP POP SWAP3 POP SWAP3 SWAP1 POP JUMP JUMPDEST PUSH2 0xB9A DUP2 PUSH2 0xB20 JUMP JUMPDEST DUP3 MSTORE POP POP JUMP JUMPDEST PUSH0 PUSH1 0x20 DUP3 ADD SWAP1 POP PUSH2 0xBB3 PUSH0 DUP4 ADD DUP5 PUSH2 0xB91 JUMP JUMPDEST SWAP3 SWAP2 POP POP JUMP JUMPDEST PUSH0 PUSH2 0xBC3 DUP3 PUSH2 0xA68 JUMP JUMPDEST SWAP1 POP SWAP2 SWAP1 POP JUMP JUMPDEST PUSH2 0xBD3 DUP2 PUSH2 0xBB9 JUMP JUMPDEST DUP3 MSTORE POP POP JUMP JUMPDEST PUSH0 PUSH1 0x20 DUP3 ADD SWAP1 POP PUSH2 0xBEC PUSH0 DUP4 ADD DUP5 PUSH2 0xBCA JUMP JUMPDEST SWAP3 SWAP2 POP POP JUMP JUMPDEST PUSH2 0xBFB DUP2 PUSH2 0xBB9 JUMP JUMPDEST DUP2 EQ PUSH2 0xC05 JUMPI PUSH0 PUSH0 REVERT JUMPDEST POP JUMP JUMPDEST PUSH0 DUP2 CALLDATALOAD SWAP1 POP PUSH2 0xC16 DUP2 PUSH2 0xBF2 JUMP JUMPDEST SWAP3 SWAP2 POP POP JUMP JUMPDEST PUSH0 PUSH1 0x20 DUP3 DUP5 SUB SLT ISZERO PUSH2 0xC31 JUMPI PUSH2 0xC30 PUSH2 0xA60 JUMP JUMPDEST JUMPDEST PUSH0 PUSH2 0xC3E DUP5 DUP3 DUP6 ADD PUSH2 0xC08 JUMP JUMPDEST SWAP2 POP POP SWAP3 SWAP2 POP POP JUMP JUMPDEST PUSH0 PUSH0 REVERT JUMPDEST PUSH0 PUSH0 REVERT JUMPDEST PUSH0 PUSH1 0x1F NOT PUSH1 0x1F DUP4 ADD AND SWAP1 POP SWAP2 SWAP1 POP JUMP JUMPDEST PUSH32 0x4E487B7100000000000000000000000000000000000000000000000000000000 PUSH0 MSTORE PUSH1 0x41 PUSH1 0x4 MSTORE PUSH1 0x24 PUSH0 REVERT JUMPDEST PUSH2 0xC95 DUP3 PUSH2 0xC4F JUMP JUMPDEST DUP2 ADD DUP2 DUP2 LT PUSH8 0xFFFFFFFFFFFFFFFF DUP3 GT OR ISZERO PUSH2 0xCB4 JUMPI PUSH2 0xCB3 PUSH2 0xC5F JUMP JUMPDEST JUMPDEST DUP1 PUSH1 0x40 MSTORE POP POP POP JUMP JUMPDEST PUSH0 PUSH2 0xCC6 PUSH2 0xA57 JUMP JUMPDEST SWAP1 POP PUSH2 0xCD2 DUP3 DUP3 PUSH2 0xC8C JUMP JUMPDEST SWAP2 SWAP1 POP JUMP JUMPDEST PUSH0 PUSH8 0xFFFFFFFFFFFFFFFF DUP3 GT ISZERO PUSH2 0xCF1 JUMPI PUSH2 0xCF0 PUSH2 0xC5F JUMP JUMPDEST JUMPDEST PUSH2 0xCFA DUP3 PUSH2 0xC4F JUMP JUMPDEST SWAP1 POP PUSH1 0x20 DUP2 ADD SWAP1 POP SWAP2 SWAP1 POP JUMP JUMPDEST DUP3 DUP2 DUP4 CALLDATACOPY PUSH0 DUP4 DUP4 ADD MSTORE POP POP POP JUMP JUMPDEST PUSH0 PUSH2 0xD27 PUSH2 0xD22 DUP5 PUSH2 0xCD7 JUMP JUMPDEST PUSH2 0xCBD JUMP JUMPDEST SWAP1 POP DUP3 DUP2 MSTORE PUSH1 0x20 DUP2 ADD DUP5 DUP5 DUP5 ADD GT ISZERO PUSH2 0xD43 JUMPI PUSH2 0xD42 PUSH2 0xC4B JUMP JUMPDEST JUMPDEST PUSH2 0xD4E DUP5 DUP3 DUP6 PUSH2 0xD07 JUMP JUMPDEST POP SWAP4 SWAP3 POP POP POP JUMP JUMPDEST PUSH0 DUP3 PUSH1 0x1F DUP4 ADD SLT PUSH2 0xD6A JUMPI PUSH2 0xD69 PUSH2 0xC47 JUMP JUMPDEST JUMPDEST DUP2 CALLDATALOAD PUSH2 0xD7A DUP5 DUP3 PUSH1 0x20 DUP7 ADD PUSH2 0xD15 JUMP JUMPDEST SWAP2 POP POP SWAP3 SWAP2 POP POP JUMP JUMPDEST PUSH0 PUSH0 PUSH0 PUSH1 0x60 DUP5 DUP7 SUB SLT ISZERO PUSH2 0xD9A JUMPI PUSH2 0xD99 PUSH2 0xA60 JUMP JUMPDEST JUMPDEST PUSH0 PUSH2 0xDA7 DUP7 DUP3 DUP8 ADD PUSH2 0xC08 JUMP JUMPDEST SWAP4 POP POP PUSH1 0x20 PUSH2 0xDB8 DUP7 DUP3 DUP8 ADD PUSH2 0xB3F JUMP JUMPDEST SWAP3 POP POP PUSH1 0x40 DUP5 ADD CALLDATALOAD PUSH8 0xFFFFFFFFFFFFFFFF DUP2 GT ISZERO PUSH2 0xDD9 JUMPI PUSH2 0xDD8 PUSH2 0xA64 JUMP JUMPDEST JUMPDEST PUSH2 0xDE5 DUP7 DUP3 DUP8 ADD PUSH2 0xD56 JUMP JUMPDEST SWAP2 POP POP SWAP3 POP SWAP3 POP SWAP3 JUMP JUMPDEST PUSH0 DUP2 MLOAD SWAP1 POP SWAP2 SWAP1 POP JUMP JUMPDEST PUSH0 DUP3 DUP3 MSTORE PUSH1 0x20 DUP3 ADD SWAP1 POP SWAP3 SWAP2 POP POP JUMP JUMPDEST DUP3 DUP2 DUP4 MCOPY PUSH0 DUP4 DUP4 ADD MSTORE POP POP POP JUMP JUMPDEST PUSH0 PUSH2 0xE21 DUP3 PUSH2 0xDEF JUMP JUMPDEST PUSH2 0xE2B DUP2 DUP6 PUSH2 0xDF9 JUMP JUMPDEST SWAP4 POP PUSH2 0xE3B DUP2 DUP6 PUSH1 0x20 DUP7 ADD PUSH2 0xE09 JUMP JUMPDEST PUSH2 0xE44 DUP2 PUSH2 0xC4F JUMP JUMPDEST DUP5 ADD SWAP2 POP POP SWAP3 SWAP2 POP POP JUMP JUMPDEST PUSH0 PUSH1 0x20 DUP3 ADD SWAP1 POP DUP2 DUP2 SUB PUSH0 DUP4 ADD MSTORE PUSH2 0xE67 DUP2 DUP5 PUSH2 0xE17 JUMP JUMPDEST SWAP1 POP SWAP3 SWAP2 POP POP JUMP JUMPDEST PUSH0 DUP3 DUP3 MSTORE PUSH1 0x20 DUP3 ADD SWAP1 POP SWAP3 SWAP2 POP POP JUMP JUMPDEST PUSH32 0x596F7520617265206E6F7420746865206F776E65722C2061626F7274696E6700 PUSH0 DUP3 ADD MSTORE POP JUMP JUMPDEST PUSH0 PUSH2 0xEB3 PUSH1 0x1F DUP4 PUSH2 0xE6F JUMP JUMPDEST SWAP2 POP PUSH2 0xEBE DUP3 PUSH2 0xE7F JUMP JUMPDEST PUSH1 0x20 DUP3 ADD SWAP1 POP SWAP2 SWAP1 POP JUMP JUMPDEST PUSH0 PUSH1 0x20 DUP3 ADD SWAP1 POP DUP2 DUP2 SUB PUSH0 DUP4 ADD MSTORE PUSH2 0xEE0 DUP2 PUSH2 0xEA7 JUMP JUMPDEST SWAP1 POP SWAP2 SWAP1 POP JUMP JUMPDEST PUSH32 0x596F7520617265206E6F7420677561726469616E206F6620746869732077616C PUSH0 DUP3 ADD MSTORE PUSH32 0x6C65742C2061626F7274696E6700000000000000000000000000000000000000 PUSH1 0x20 DUP3 ADD MSTORE POP JUMP JUMPDEST PUSH0 PUSH2 0xF41 PUSH1 0x2D DUP4 PUSH2 0xE6F JUMP JUMPDEST SWAP2 POP PUSH2 0xF4C DUP3 PUSH2 0xEE7 JUMP JUMPDEST PUSH1 0x40 DUP3 ADD SWAP1 POP SWAP2 SWAP1 POP JUMP JUMPDEST PUSH0 PUSH1 0x20 DUP3 ADD SWAP1 POP DUP2 DUP2 SUB PUSH0 DUP4 ADD MSTORE PUSH2 0xF6E DUP2 PUSH2 0xF35 JUMP JUMPDEST SWAP1 POP SWAP2 SWAP1 POP JUMP JUMPDEST PUSH32 0x596F7520616C726561647920766F7465642C2061626F7274696E670000000000 PUSH0 DUP3 ADD MSTORE POP JUMP JUMPDEST PUSH0 PUSH2 0xFA9 PUSH1 0x1B DUP4 PUSH2 0xE6F JUMP JUMPDEST SWAP2 POP PUSH2 0xFB4 DUP3 PUSH2 0xF75 JUMP JUMPDEST PUSH1 0x20 DUP3 ADD SWAP1 POP SWAP2 SWAP1 POP JUMP JUMPDEST PUSH0 PUSH1 0x20 DUP3 ADD SWAP1 POP DUP2 DUP2 SUB PUSH0 DUP4 ADD MSTORE PUSH2 0xFD6 DUP2 PUSH2 0xF9D JUMP JUMPDEST SWAP1 POP SWAP2 SWAP1 POP JUMP JUMPDEST PUSH32 0x4E487B7100000000000000000000000000000000000000000000000000000000 PUSH0 MSTORE PUSH1 0x11 PUSH1 0x4 MSTORE PUSH1 0x24 PUSH0 REVERT JUMPDEST PUSH0 PUSH2 0x1014 DUP3 PUSH2 0xB20 JUMP JUMPDEST SWAP2 POP PUSH32 0xFFFFFFFFFFFFFFFFFFFFFFFFFFFFFFFFFFFFFFFFFFFFFFFFFFFFFFFFFFFFFFFF DUP3 SUB PUSH2 0x1046 JUMPI PUSH2 0x1045 PUSH2 0xFDD JUMP JUMPDEST JUMPDEST PUSH1 0x1 DUP3 ADD SWAP1 POP SWAP2 SWAP1 POP JUMP JUMPDEST PUSH32 0x596F7520617265206E6F7420616C6C6F77656420746F2073656E6420616E7974 PUSH0 DUP3 ADD MSTORE PUSH32 0x68696E672066726F6D207468697320736D61727420636F6E74726163742C2061 PUSH1 0x20 DUP3 ADD MSTORE PUSH32 0x626F7274696E6700000000000000000000000000000000000000000000000000 PUSH1 0x40 DUP3 ADD MSTORE POP JUMP JUMPDEST PUSH0 PUSH2 0x10D1 PUSH1 0x47 DUP4 PUSH2 0xE6F JUMP JUMPDEST SWAP2 POP PUSH2 0x10DC DUP3 PUSH2 0x1051 JUMP JUMPDEST PUSH1 0x60 DUP3 ADD SWAP1 POP SWAP2 SWAP1 POP JUMP JUMPDEST PUSH0 PUSH1 0x20 DUP3 ADD SWAP1 POP DUP2 DUP2 SUB PUSH0 DUP4 ADD MSTORE PUSH2 0x10FE DUP2 PUSH2 0x10C5 JUMP JUMPDEST SWAP1 POP SWAP2 SWAP1 POP JUMP JUMPDEST PUSH32 0x596F752061726520747279696E6720746F2073656E64206D6F7265207468616E PUSH0 DUP3 ADD MSTORE PUSH32 0x20796F752061726520616C6C6F77656420746F2C2061626F7274696E67000000 PUSH1 0x20 DUP3 ADD MSTORE POP JUMP JUMPDEST PUSH0 PUSH2 0x115F PUSH1 0x3D DUP4 PUSH2 0xE6F JUMP JUMPDEST SWAP2 POP PUSH2 0x116A DUP3 PUSH2 0x1105 JUMP JUMPDEST PUSH1 0x40 DUP3 ADD SWAP1 POP SWAP2 SWAP1 POP JUMP JUMPDEST PUSH0 PUSH1 0x20 DUP3 ADD SWAP1 POP DUP2 DUP2 SUB PUSH0 DUP4 ADD MSTORE PUSH2 0x118C DUP2 PUSH2 0x1153 JUMP JUMPDEST SWAP1 POP SWAP2 SWAP1 POP JUMP JUMPDEST PUSH0 PUSH2 0x119D DUP3 PUSH2 0xB20 JUMP JUMPDEST SWAP2 POP PUSH2 0x11A8 DUP4 PUSH2 0xB20 JUMP JUMPDEST SWAP3 POP DUP3 DUP3 SUB SWAP1 POP DUP2 DUP2 GT ISZERO PUSH2 0x11C0 JUMPI PUSH2 0x11BF PUSH2 0xFDD JUMP JUMPDEST JUMPDEST SWAP3 SWAP2 POP POP JUMP JUMPDEST PUSH0 DUP2 SWAP1 POP SWAP3 SWAP2 POP POP JUMP JUMPDEST PUSH0 PUSH2 0x11DA DUP3 PUSH2 0xDEF JUMP JUMPDEST PUSH2 0x11E4 DUP2 DUP6 PUSH2 0x11C6 JUMP JUMPDEST SWAP4 POP PUSH2 0x11F4 DUP2 DUP6 PUSH1 0x20 DUP7 ADD PUSH2 0xE09 JUMP JUMPDEST DUP1 DUP5 ADD SWAP2 POP POP SWAP3 SWAP2 POP POP JUMP JUMPDEST PUSH0 PUSH2 0x120B DUP3 DUP5 PUSH2 0x11D0 JUMP JUMPDEST SWAP2 POP DUP2 SWAP1 POP SWAP3 SWAP2 POP POP JUMP JUMPDEST PUSH32 0x41626F7274696E672C2063616C6C20776173206E6F7420737563636573736675 PUSH0 DUP3 ADD MSTORE PUSH32 0x6C20000000000000000000000000000000000000000000000000000000000000 PUSH1 0x20 DUP3 ADD MSTORE POP JUMP JUMPDEST PUSH0 PUSH2 0x1270 PUSH1 0x22 DUP4 PUSH2 0xE6F JUMP JUMPDEST SWAP2 POP PUSH2 0x127B DUP3 PUSH2 0x1216 JUMP JUMPDEST PUSH1 0x40 DUP3 ADD SWAP1 POP SWAP2 SWAP1 POP JUMP JUMPDEST PUSH0 PUSH1 0x20 DUP3 ADD SWAP1 POP DUP2 DUP2 SUB PUSH0 DUP4 ADD MSTORE PUSH2 0x129D DUP2 PUSH2 0x1264 JUMP JUMPDEST SWAP1 POP SWAP2 SWAP1 POP JUMP INVALID LOG2 PUSH5 0x6970667358 0x22 SLT KECCAK256 0xB4 0xA9 ADD EXTCALL 0xE9 DUP3 PUSH0 PUSH21 0x7CE5814C958407BBED74F5A49144E7A8E0B577DB74 ORIGIN TLOAD DUP1 PUSH5 0x736F6C6343 STOP ADDMOD 0x1E STOP CALLER "
				},
				"gasEstimates": {
					"creation": {
						"codeDepositCost": "965200",
						"executionCost": "25263",
						"totalCost": "990463"
					},
					"external": {
						"allowance(address)": "2869",
						"confirmationsFromGuardiansForReset()": "325",
						"guardians(address)": "2834",
						"isAllowedToSend(address)": "2856",
						"owner()": "2529",
						"proposeNewOwner(address)": "63002",
						"setAllowance(address,uint256)": "49423",
						"setGuardians(address)": "27059",
						"transfer(address,uint256,bytes)": "infinite"
					}
				},
				"methodIdentifiers": {
					"allowance(address)": "3e5beab9",
					"confirmationsFromGuardiansForReset()": "83012be1",
					"guardians(address)": "0633b14a",
					"isAllowedToSend(address)": "0bc605ad",
					"owner()": "8da5cb5b",
					"proposeNewOwner(address)": "b1f8100d",
					"setAllowance(address,uint256)": "310ec4a7",
					"setGuardians(address)": "dac1b303",
					"transfer(address,uint256,bytes)": "be45fd62"
				}
			},
			"storageLayout": {
				"storage": [
					{
						"astId": 20,
						"contract": "contracts/SmartContract.sol:SmartContractWallet",
						"label": "owner",
						"offset": 0,
						"slot": "0",
						"type": "t_address_payable"
					},
					{
						"astId": 24,
						"contract": "contracts/SmartContract.sol:SmartContractWallet",
						"label": "allowance",
						"offset": 0,
						"slot": "1",
						"type": "t_mapping(t_address,t_uint256)"
					},
					{
						"astId": 28,
						"contract": "contracts/SmartContract.sol:SmartContractWallet",
						"label": "isAllowedToSend",
						"offset": 0,
						"slot": "2",
						"type": "t_mapping(t_address,t_bool)"
					},
					{
						"astId": 32,
						"contract": "contracts/SmartContract.sol:SmartContractWallet",
						"label": "guardians",
						"offset": 0,
						"slot": "3",
						"type": "t_mapping(t_address,t_bool)"
					},
					{
						"astId": 38,
						"contract": "contracts/SmartContract.sol:SmartContractWallet",
						"label": "nextOwnerGuardianVotedBool",
						"offset": 0,
						"slot": "4",
						"type": "t_mapping(t_address,t_mapping(t_address,t_bool))"
					},
					{
						"astId": 40,
						"contract": "contracts/SmartContract.sol:SmartContractWallet",
						"label": "nextOwner",
						"offset": 0,
						"slot": "5",
						"type": "t_address_payable"
					},
					{
						"astId": 42,
						"contract": "contracts/SmartContract.sol:SmartContractWallet",
						"label": "guardiansResetCount",
						"offset": 0,
						"slot": "6",
						"type": "t_uint256"
					}
				],
				"types": {
					"t_address": {
						"encoding": "inplace",
						"label": "address",
						"numberOfBytes": "20"
					},
					"t_address_payable": {
						"encoding": "inplace",
						"label": "address payable",
						"numberOfBytes": "20"
					},
					"t_bool": {
						"encoding": "inplace",
						"label": "bool",
						"numberOfBytes": "1"
					},
					"t_mapping(t_address,t_bool)": {
						"encoding": "mapping",
						"key": "t_address",
						"label": "mapping(address => bool)",
						"numberOfBytes": "32",
						"value": "t_bool"
					},
					"t_mapping(t_address,t_mapping(t_address,t_bool))": {
						"encoding": "mapping",
						"key": "t_address",
						"label": "mapping(address => mapping(address => bool))",
						"numberOfBytes": "32",
						"value": "t_mapping(t_address,t_bool)"
					},
					"t_mapping(t_address,t_uint256)": {
						"encoding": "mapping",
						"key": "t_address",
						"label": "mapping(address => uint256)",
						"numberOfBytes": "32",
						"value": "t_uint256"
					},
					"t_uint256": {
						"encoding": "inplace",
						"label": "uint256",
						"numberOfBytes": "32"
					}
				}
			},
			"userdoc": {
				"kind": "user",
				"methods": {},
				"version": 1
			}
		}
	}
}